{"contracts/Certification.sol":{"Certification":{"abi":[{"inputs":[],"stateMutability":"nonpayable","type":"constructor"},{"anonymous":false,"inputs":[{"indexed":true,"internalType":"string","name":"id","type":"string"},{"indexed":true,"internalType":"address","name":"holder","type":"address"},{"indexed":false,"internalType":"string","name":"holderName","type":"string"},{"indexed":false,"internalType":"string","name":"courseName","type":"string"},{"indexed":false,"internalType":"uint256","name":"issueDate","type":"uint256"},{"indexed":false,"internalType":"string","name":"issuer","type":"string"}],"name":"CertificateIssued","type":"event"},{"inputs":[{"internalType":"address","name":"_user","type":"address"},{"internalType":"string","name":"_certificateId","type":"string"}],"name":"getCertificateById","outputs":[{"components":[{"internalType":"string","name":"id","type":"string"},{"internalType":"string","name":"holderName","type":"string"},{"internalType":"string","name":"courseName","type":"string"},{"internalType":"uint256","name":"issueDate","type":"uint256"},{"internalType":"string","name":"issuer","type":"string"},{"internalType":"string","name":"ipfsId","type":"string"}],"internalType":"struct Certification.Certificate","name":"","type":"tuple"}],"stateMutability":"view","type":"function"},{"inputs":[{"internalType":"address","name":"_user","type":"address"}],"name":"getUserCertificates","outputs":[{"components":[{"internalType":"string","name":"id","type":"string"},{"internalType":"string","name":"holderName","type":"string"},{"internalType":"string","name":"courseName","type":"string"},{"internalType":"uint256","name":"issueDate","type":"uint256"},{"internalType":"string","name":"issuer","type":"string"},{"internalType":"string","name":"ipfsId","type":"string"}],"internalType":"struct Certification.Certificate[]","name":"","type":"tuple[]"}],"stateMutability":"view","type":"function"},{"inputs":[{"internalType":"string","name":"_certificateId","type":"string"},{"internalType":"address","name":"_holder","type":"address"},{"internalType":"string","name":"_holderName","type":"string"},{"internalType":"string","name":"_courseName","type":"string"},{"internalType":"string","name":"_issuer","type":"string"},{"internalType":"string","name":"_ipfsId","type":"string"}],"name":"issueCertificate","outputs":[],"stateMutability":"nonpayable","type":"function"},{"inputs":[],"name":"owner","outputs":[{"internalType":"address","name":"","type":"address"}],"stateMutability":"view","type":"function"},{"inputs":[{"internalType":"address","name":"_newOwner","type":"address"}],"name":"transferOwnership","outputs":[],"stateMutability":"nonpayable","type":"function"},{"inputs":[{"internalType":"address","name":"_user","type":"address"},{"internalType":"string","name":"_certificateId","type":"string"}],"name":"verifyCertificate","outputs":[{"internalType":"bool","name":"","type":"bool"}],"stateMutability":"view","type":"function"}],"evm":{"bytecode":{"linkReferences":{},"object":"608060405234801561001057600080fd5b50336000806101000a81548173ffffffffffffffffffffffffffffffffffffffff021916908373ffffffffffffffffffffffffffffffffffffffff160217905550611e7e806100606000396000f3fe608060405234801561001057600080fd5b50600436106100625760003560e01c80630385bd181461006757806332cc82b31461009757806348fe844d146100c75780636bfdac5a146100e35780638da5cb5b14610113578063f2fde38b14610131575b600080fd5b610081600480360381019061007c91906111b8565b61014d565b60405161008e91906113f5565b60405180910390f35b6100b160048036038101906100ac919061154c565b6104cf565b6040516100be91906115c3565b60405180910390f35b6100e160048036038101906100dc91906115de565b6108b7565b005b6100fd60048036038101906100f8919061154c565b610b6f565b60405161010a919061179c565b60405180910390f35b61011b610fac565b60405161012891906117cd565b60405180910390f35b61014b600480360381019061014691906111b8565b610fd0565b005b6060600160008373ffffffffffffffffffffffffffffffffffffffff1673ffffffffffffffffffffffffffffffffffffffff168152602001908152602001600020805480602002602001604051908101604052809291908181526020016000905b828210156104c457838290600052602060002090600602016040518060c00160405290816000820180546101e190611817565b80601f016020809104026020016040519081016040528092919081815260200182805461020d90611817565b801561025a5780601f1061022f5761010080835404028352916020019161025a565b820191906000526020600020905b81548152906001019060200180831161023d57829003601f168201915b5050505050815260200160018201805461027390611817565b80601f016020809104026020016040519081016040528092919081815260200182805461029f90611817565b80156102ec5780601f106102c1576101008083540402835291602001916102ec565b820191906000526020600020905b8154815290600101906020018083116102cf57829003601f168201915b5050505050815260200160028201805461030590611817565b80601f016020809104026020016040519081016040528092919081815260200182805461033190611817565b801561037e5780601f106103535761010080835404028352916020019161037e565b820191906000526020600020905b81548152906001019060200180831161036157829003601f168201915b50505050508152602001600382015481526020016004820180546103a190611817565b80601f01602080910402602001604051908101604052809291908181526020018280546103cd90611817565b801561041a5780601f106103ef5761010080835404028352916020019161041a565b820191906000526020600020905b8154815290600101906020018083116103fd57829003601f168201915b5050505050815260200160058201805461043390611817565b80601f016020809104026020016040519081016040528092919081815260200182805461045f90611817565b80156104ac5780601f10610481576101008083540402835291602001916104ac565b820191906000526020600020905b81548152906001019060200180831161048f57829003601f168201915b505050505081525050815260200190600101906101ae565b505050509050919050565b600080600160008573ffffffffffffffffffffffffffffffffffffffff1673ffffffffffffffffffffffffffffffffffffffff168152602001908152602001600020805480602002602001604051908101604052809291908181526020016000905b8282101561084757838290600052602060002090600602016040518060c001604052908160008201805461056490611817565b80601f016020809104026020016040519081016040528092919081815260200182805461059090611817565b80156105dd5780601f106105b2576101008083540402835291602001916105dd565b820191906000526020600020905b8154815290600101906020018083116105c057829003601f168201915b505050505081526020016001820180546105f690611817565b80601f016020809104026020016040519081016040528092919081815260200182805461062290611817565b801561066f5780601f106106445761010080835404028352916020019161066f565b820191906000526020600020905b81548152906001019060200180831161065257829003601f168201915b5050505050815260200160028201805461068890611817565b80601f01602080910402602001604051908101604052809291908181526020018280546106b490611817565b80156107015780601f106106d657610100808354040283529160200191610701565b820191906000526020600020905b8154815290600101906020018083116106e457829003601f168201915b505050505081526020016003820154815260200160048201805461072490611817565b80601f016020809104026020016040519081016040528092919081815260200182805461075090611817565b801561079d5780601f106107725761010080835404028352916020019161079d565b820191906000526020600020905b81548152906001019060200180831161078057829003601f168201915b505050505081526020016005820180546107b690611817565b80601f01602080910402602001604051908101604052809291908181526020018280546107e290611817565b801561082f5780601f106108045761010080835404028352916020019161082f565b820191906000526020600020905b81548152906001019060200180831161081257829003601f168201915b50505050508152505081526020019060010190610531565b50505050905060005b81518110156108aa57838051906020012082828151811061087457610873611848565b5b6020026020010151600001518051906020012003610897576001925050506108b1565b80806108a2906118a6565b915050610850565b5060009150505b92915050565b60008054906101000a900473ffffffffffffffffffffffffffffffffffffffff1673ffffffffffffffffffffffffffffffffffffffff163373ffffffffffffffffffffffffffffffffffffffff1614610945576040517f08c379a000000000000000000000000000000000000000000000000000000000815260040161093c90611971565b60405180910390fd5b60028660405161095591906119cd565b908152602001604051809103902060009054906101000a900460ff16156109b1576040517f08c379a00000000000000000000000000000000000000000000000000000000081526004016109a890611a30565b60405180910390fd5b60006040518060c00160405280888152602001868152602001858152602001428152602001848152602001838152509050600160008773ffffffffffffffffffffffffffffffffffffffff1673ffffffffffffffffffffffffffffffffffffffff1681526020019081526020016000208190806001815401808255809150506001900390600052602060002090600602016000909190919091506000820151816000019081610a609190611bfc565b506020820151816001019081610a769190611bfc565b506040820151816002019081610a8c9190611bfc565b50606082015181600301556080820151816004019081610aac9190611bfc565b5060a0820151816005019081610ac29190611bfc565b5050506001600288604051610ad791906119cd565b908152602001604051809103902060006101000a81548160ff0219169083151502179055508573ffffffffffffffffffffffffffffffffffffffff1687604051610b2191906119cd565b60405180910390207f18b25641824764ef57536418832ec3b07baf900cd43ed703082a392163082e4f87874288604051610b5e9493929190611d16565b60405180910390a350505050505050565b610b77611110565b6000600160008573ffffffffffffffffffffffffffffffffffffffff1673ffffffffffffffffffffffffffffffffffffffff168152602001908152602001600020805480602002602001604051908101604052809291908181526020016000905b82821015610eee57838290600052602060002090600602016040518060c0016040529081600082018054610c0b90611817565b80601f0160208091040260200160405190810160405280929190818152602001828054610c3790611817565b8015610c845780601f10610c5957610100808354040283529160200191610c84565b820191906000526020600020905b815481529060010190602001808311610c6757829003601f168201915b50505050508152602001600182018054610c9d90611817565b80601f0160208091040260200160405190810160405280929190818152602001828054610cc990611817565b8015610d165780601f10610ceb57610100808354040283529160200191610d16565b820191906000526020600020905b815481529060010190602001808311610cf957829003601f168201915b50505050508152602001600282018054610d2f90611817565b80601f0160208091040260200160405190810160405280929190818152602001828054610d5b90611817565b8015610da85780601f10610d7d57610100808354040283529160200191610da8565b820191906000526020600020905b815481529060010190602001808311610d8b57829003601f168201915b5050505050815260200160038201548152602001600482018054610dcb90611817565b80601f0160208091040260200160405190810160405280929190818152602001828054610df790611817565b8015610e445780601f10610e1957610100808354040283529160200191610e44565b820191906000526020600020905b815481529060010190602001808311610e2757829003601f168201915b50505050508152602001600582018054610e5d90611817565b80601f0160208091040260200160405190810160405280929190818152602001828054610e8990611817565b8015610ed65780601f10610eab57610100808354040283529160200191610ed6565b820191906000526020600020905b815481529060010190602001808311610eb957829003601f168201915b50505050508152505081526020019060010190610bd8565b50505050905060005b8151811015610f6a578380519060200120828281518110610f1b57610f1a611848565b5b6020026020010151600001518051906020012003610f5757818181518110610f4657610f45611848565b5b602002602001015192505050610fa6565b8080610f62906118a6565b915050610ef7565b506040517f08c379a0000000000000000000000000000000000000000000000000000000008152600401610f9d90611dbc565b60405180910390fd5b92915050565b60008054906101000a900473ffffffffffffffffffffffffffffffffffffffff1681565b60008054906101000a900473ffffffffffffffffffffffffffffffffffffffff1673ffffffffffffffffffffffffffffffffffffffff163373ffffffffffffffffffffffffffffffffffffffff161461105e576040517f08c379a000000000000000000000000000000000000000000000000000000000815260040161105590611971565b60405180910390fd5b600073ffffffffffffffffffffffffffffffffffffffff168173ffffffffffffffffffffffffffffffffffffffff16036110cd576040517f08c379a00000000000000000000000000000000000000000000000000000000081526004016110c490611e28565b60405180910390fd5b806000806101000a81548173ffffffffffffffffffffffffffffffffffffffff021916908373ffffffffffffffffffffffffffffffffffffffff16021790555050565b6040518060c001604052806060815260200160608152602001606081526020016000815260200160608152602001606081525090565b6000604051905090565b600080fd5b600080fd5b600073ffffffffffffffffffffffffffffffffffffffff82169050919050565b60006111858261115a565b9050919050565b6111958161117a565b81146111a057600080fd5b50565b6000813590506111b28161118c565b92915050565b6000602082840312156111ce576111cd611150565b5b60006111dc848285016111a3565b91505092915050565b600081519050919050565b600082825260208201905092915050565b6000819050602082019050919050565b600081519050919050565b600082825260208201905092915050565b60005b8381101561124b578082015181840152602081019050611230565b60008484015250505050565b6000601f19601f8301169050919050565b600061127382611211565b61127d818561121c565b935061128d81856020860161122d565b61129681611257565b840191505092915050565b6000819050919050565b6112b4816112a1565b82525050565b600060c08301600083015184820360008601526112d78282611268565b915050602083015184820360208601526112f18282611268565b9150506040830151848203604086015261130b8282611268565b915050606083015161132060608601826112ab565b50608083015184820360808601526113388282611268565b91505060a083015184820360a08601526113528282611268565b9150508091505092915050565b600061136b83836112ba565b905092915050565b6000602082019050919050565b600061138b826111e5565b61139581856111f0565b9350836020820285016113a785611201565b8060005b858110156113e357848403895281516113c4858261135f565b94506113cf83611373565b925060208a019950506001810190506113ab565b50829750879550505050505092915050565b6000602082019050818103600083015261140f8184611380565b905092915050565b600080fd5b600080fd5b7f4e487b7100000000000000000000000000000000000000000000000000000000600052604160045260246000fd5b61145982611257565b810181811067ffffffffffffffff8211171561147857611477611421565b5b80604052505050565b600061148b611146565b90506114978282611450565b919050565b600067ffffffffffffffff8211156114b7576114b6611421565b5b6114c082611257565b9050602081019050919050565b82818337600083830152505050565b60006114ef6114ea8461149c565b611481565b90508281526020810184848401111561150b5761150a61141c565b5b6115168482856114cd565b509392505050565b600082601f83011261153357611532611417565b5b81356115438482602086016114dc565b91505092915050565b6000806040838503121561156357611562611150565b5b6000611571858286016111a3565b925050602083013567ffffffffffffffff81111561159257611591611155565b5b61159e8582860161151e565b9150509250929050565b60008115159050919050565b6115bd816115a8565b82525050565b60006020820190506115d860008301846115b4565b92915050565b60008060008060008060c087890312156115fb576115fa611150565b5b600087013567ffffffffffffffff81111561161957611618611155565b5b61162589828a0161151e565b965050602061163689828a016111a3565b955050604087013567ffffffffffffffff81111561165757611656611155565b5b61166389828a0161151e565b945050606087013567ffffffffffffffff81111561168457611683611155565b5b61169089828a0161151e565b935050608087013567ffffffffffffffff8111156116b1576116b0611155565b5b6116bd89828a0161151e565b92505060a087013567ffffffffffffffff8111156116de576116dd611155565b5b6116ea89828a0161151e565b9150509295509295509295565b600060c08301600083015184820360008601526117148282611268565b9150506020830151848203602086015261172e8282611268565b915050604083015184820360408601526117488282611268565b915050606083015161175d60608601826112ab565b50608083015184820360808601526117758282611268565b91505060a083015184820360a086015261178f8282611268565b9150508091505092915050565b600060208201905081810360008301526117b681846116f7565b905092915050565b6117c78161117a565b82525050565b60006020820190506117e260008301846117be565b92915050565b7f4e487b7100000000000000000000000000000000000000000000000000000000600052602260045260246000fd5b6000600282049050600182168061182f57607f821691505b602082108103611842576118416117e8565b5b50919050565b7f4e487b7100000000000000000000000000000000000000000000000000000000600052603260045260246000fd5b7f4e487b7100000000000000000000000000000000000000000000000000000000600052601160045260246000fd5b60006118b1826112a1565b91507fffffffffffffffffffffffffffffffffffffffffffffffffffffffffffffffff82036118e3576118e2611877565b5b600182019050919050565b600082825260208201905092915050565b7f4f6e6c79206f776e65722063616e20706572666f726d2074686973206163746960008201527f6f6e000000000000000000000000000000000000000000000000000000000000602082015250565b600061195b6022836118ee565b9150611966826118ff565b604082019050919050565b6000602082019050818103600083015261198a8161194e565b9050919050565b600081905092915050565b60006119a782611211565b6119b18185611991565b93506119c181856020860161122d565b80840191505092915050565b60006119d9828461199c565b915081905092915050565b7f436572746966696361746520494420616c726561647920657869737473000000600082015250565b6000611a1a601d836118ee565b9150611a25826119e4565b602082019050919050565b60006020820190508181036000830152611a4981611a0d565b9050919050565b60008190508160005260206000209050919050565b60006020601f8301049050919050565b600082821b905092915050565b600060088302611ab27fffffffffffffffffffffffffffffffffffffffffffffffffffffffffffffffff82611a75565b611abc8683611a75565b95508019841693508086168417925050509392505050565b6000819050919050565b6000611af9611af4611aef846112a1565b611ad4565b6112a1565b9050919050565b6000819050919050565b611b1383611ade565b611b27611b1f82611b00565b848454611a82565b825550505050565b600090565b611b3c611b2f565b611b47818484611b0a565b505050565b5b81811015611b6b57611b60600082611b34565b600181019050611b4d565b5050565b601f821115611bb057611b8181611a50565b611b8a84611a65565b81016020851015611b99578190505b611bad611ba585611a65565b830182611b4c565b50505b505050565b600082821c905092915050565b6000611bd360001984600802611bb5565b1980831691505092915050565b6000611bec8383611bc2565b9150826002028217905092915050565b611c0582611211565b67ffffffffffffffff811115611c1e57611c1d611421565b5b611c288254611817565b611c33828285611b6f565b600060209050601f831160018114611c665760008415611c54578287015190505b611c5e8582611be0565b865550611cc6565b601f198416611c7486611a50565b60005b82811015611c9c57848901518255600182019150602085019450602081019050611c77565b86831015611cb95784890151611cb5601f891682611bc2565b8355505b6001600288020188555050505b505050505050565b6000611cd982611211565b611ce381856118ee565b9350611cf381856020860161122d565b611cfc81611257565b840191505092915050565b611d10816112a1565b82525050565b60006080820190508181036000830152611d308187611cce565b90508181036020830152611d448186611cce565b9050611d536040830185611d07565b8181036060830152611d658184611cce565b905095945050505050565b7f4365727469666963617465206e6f7420666f756e640000000000000000000000600082015250565b6000611da66015836118ee565b9150611db182611d70565b602082019050919050565b60006020820190508181036000830152611dd581611d99565b9050919050565b7f496e76616c696420616464726573730000000000000000000000000000000000600082015250565b6000611e12600f836118ee565b9150611e1d82611ddc565b602082019050919050565b60006020820190508181036000830152611e4181611e05565b905091905056fea2646970667358221220d2a28726711413a3011c71d17535a4b581ea03fd24de2449559cc07eb42ede2264736f6c63430008140033","opcodes":"PUSH1 0x80 PUSH1 0x40 MSTORE CALLVALUE DUP1 ISZERO PUSH2 0x10 JUMPI PUSH1 0x0 DUP1 REVERT JUMPDEST POP CALLER PUSH1 0x0 DUP1 PUSH2 0x100 EXP DUP2 SLOAD DUP2 PUSH20 0xFFFFFFFFFFFFFFFFFFFFFFFFFFFFFFFFFFFFFFFF MUL NOT AND SWAP1 DUP4 PUSH20 0xFFFFFFFFFFFFFFFFFFFFFFFFFFFFFFFFFFFFFFFF AND MUL OR SWAP1 SSTORE POP PUSH2 0x1E7E DUP1 PUSH2 0x60 PUSH1 0x0 CODECOPY PUSH1 0x0 RETURN INVALID PUSH1 0x80 PUSH1 0x40 MSTORE CALLVALUE DUP1 ISZERO PUSH2 0x10 JUMPI PUSH1 0x0 DUP1 REVERT JUMPDEST POP PUSH1 0x4 CALLDATASIZE LT PUSH2 0x62 JUMPI PUSH1 0x0 CALLDATALOAD PUSH1 0xE0 SHR DUP1 PUSH4 0x385BD18 EQ PUSH2 0x67 JUMPI DUP1 PUSH4 0x32CC82B3 EQ PUSH2 0x97 JUMPI DUP1 PUSH4 0x48FE844D EQ PUSH2 0xC7 JUMPI DUP1 PUSH4 0x6BFDAC5A EQ PUSH2 0xE3 JUMPI DUP1 PUSH4 0x8DA5CB5B EQ PUSH2 0x113 JUMPI DUP1 PUSH4 0xF2FDE38B EQ PUSH2 0x131 JUMPI JUMPDEST PUSH1 0x0 DUP1 REVERT JUMPDEST PUSH2 0x81 PUSH1 0x4 DUP1 CALLDATASIZE SUB DUP2 ADD SWAP1 PUSH2 0x7C SWAP2 SWAP1 PUSH2 0x11B8 JUMP JUMPDEST PUSH2 0x14D JUMP JUMPDEST PUSH1 0x40 MLOAD PUSH2 0x8E SWAP2 SWAP1 PUSH2 0x13F5 JUMP JUMPDEST PUSH1 0x40 MLOAD DUP1 SWAP2 SUB SWAP1 RETURN JUMPDEST PUSH2 0xB1 PUSH1 0x4 DUP1 CALLDATASIZE SUB DUP2 ADD SWAP1 PUSH2 0xAC SWAP2 SWAP1 PUSH2 0x154C JUMP JUMPDEST PUSH2 0x4CF JUMP JUMPDEST PUSH1 0x40 MLOAD PUSH2 0xBE SWAP2 SWAP1 PUSH2 0x15C3 JUMP JUMPDEST PUSH1 0x40 MLOAD DUP1 SWAP2 SUB SWAP1 RETURN JUMPDEST PUSH2 0xE1 PUSH1 0x4 DUP1 CALLDATASIZE SUB DUP2 ADD SWAP1 PUSH2 0xDC SWAP2 SWAP1 PUSH2 0x15DE JUMP JUMPDEST PUSH2 0x8B7 JUMP JUMPDEST STOP JUMPDEST PUSH2 0xFD PUSH1 0x4 DUP1 CALLDATASIZE SUB DUP2 ADD SWAP1 PUSH2 0xF8 SWAP2 SWAP1 PUSH2 0x154C JUMP JUMPDEST PUSH2 0xB6F JUMP JUMPDEST PUSH1 0x40 MLOAD PUSH2 0x10A SWAP2 SWAP1 PUSH2 0x179C JUMP JUMPDEST PUSH1 0x40 MLOAD DUP1 SWAP2 SUB SWAP1 RETURN JUMPDEST PUSH2 0x11B PUSH2 0xFAC JUMP JUMPDEST PUSH1 0x40 MLOAD PUSH2 0x128 SWAP2 SWAP1 PUSH2 0x17CD JUMP JUMPDEST PUSH1 0x40 MLOAD DUP1 SWAP2 SUB SWAP1 RETURN JUMPDEST PUSH2 0x14B PUSH1 0x4 DUP1 CALLDATASIZE SUB DUP2 ADD SWAP1 PUSH2 0x146 SWAP2 SWAP1 PUSH2 0x11B8 JUMP JUMPDEST PUSH2 0xFD0 JUMP JUMPDEST STOP JUMPDEST PUSH1 0x60 PUSH1 0x1 PUSH1 0x0 DUP4 PUSH20 0xFFFFFFFFFFFFFFFFFFFFFFFFFFFFFFFFFFFFFFFF AND PUSH20 0xFFFFFFFFFFFFFFFFFFFFFFFFFFFFFFFFFFFFFFFF AND DUP2 MSTORE PUSH1 0x20 ADD SWAP1 DUP2 MSTORE PUSH1 0x20 ADD PUSH1 0x0 KECCAK256 DUP1 SLOAD DUP1 PUSH1 0x20 MUL PUSH1 0x20 ADD PUSH1 0x40 MLOAD SWAP1 DUP2 ADD PUSH1 0x40 MSTORE DUP1 SWAP3 SWAP2 SWAP1 DUP2 DUP2 MSTORE PUSH1 0x20 ADD PUSH1 0x0 SWAP1 JUMPDEST DUP3 DUP3 LT ISZERO PUSH2 0x4C4 JUMPI DUP4 DUP3 SWAP1 PUSH1 0x0 MSTORE PUSH1 0x20 PUSH1 0x0 KECCAK256 SWAP1 PUSH1 0x6 MUL ADD PUSH1 0x40 MLOAD DUP1 PUSH1 0xC0 ADD PUSH1 0x40 MSTORE SWAP1 DUP2 PUSH1 0x0 DUP3 ADD DUP1 SLOAD PUSH2 0x1E1 SWAP1 PUSH2 0x1817 JUMP JUMPDEST DUP1 PUSH1 0x1F ADD PUSH1 0x20 DUP1 SWAP2 DIV MUL PUSH1 0x20 ADD PUSH1 0x40 MLOAD SWAP1 DUP2 ADD PUSH1 0x40 MSTORE DUP1 SWAP3 SWAP2 SWAP1 DUP2 DUP2 MSTORE PUSH1 0x20 ADD DUP3 DUP1 SLOAD PUSH2 0x20D SWAP1 PUSH2 0x1817 JUMP JUMPDEST DUP1 ISZERO PUSH2 0x25A JUMPI DUP1 PUSH1 0x1F LT PUSH2 0x22F JUMPI PUSH2 0x100 DUP1 DUP4 SLOAD DIV MUL DUP4 MSTORE SWAP2 PUSH1 0x20 ADD SWAP2 PUSH2 0x25A JUMP JUMPDEST DUP3 ADD SWAP2 SWAP1 PUSH1 0x0 MSTORE PUSH1 0x20 PUSH1 0x0 KECCAK256 SWAP1 JUMPDEST DUP2 SLOAD DUP2 MSTORE SWAP1 PUSH1 0x1 ADD SWAP1 PUSH1 0x20 ADD DUP1 DUP4 GT PUSH2 0x23D JUMPI DUP3 SWAP1 SUB PUSH1 0x1F AND DUP3 ADD SWAP2 JUMPDEST POP POP POP POP POP DUP2 MSTORE PUSH1 0x20 ADD PUSH1 0x1 DUP3 ADD DUP1 SLOAD PUSH2 0x273 SWAP1 PUSH2 0x1817 JUMP JUMPDEST DUP1 PUSH1 0x1F ADD PUSH1 0x20 DUP1 SWAP2 DIV MUL PUSH1 0x20 ADD PUSH1 0x40 MLOAD SWAP1 DUP2 ADD PUSH1 0x40 MSTORE DUP1 SWAP3 SWAP2 SWAP1 DUP2 DUP2 MSTORE PUSH1 0x20 ADD DUP3 DUP1 SLOAD PUSH2 0x29F SWAP1 PUSH2 0x1817 JUMP JUMPDEST DUP1 ISZERO PUSH2 0x2EC JUMPI DUP1 PUSH1 0x1F LT PUSH2 0x2C1 JUMPI PUSH2 0x100 DUP1 DUP4 SLOAD DIV MUL DUP4 MSTORE SWAP2 PUSH1 0x20 ADD SWAP2 PUSH2 0x2EC JUMP JUMPDEST DUP3 ADD SWAP2 SWAP1 PUSH1 0x0 MSTORE PUSH1 0x20 PUSH1 0x0 KECCAK256 SWAP1 JUMPDEST DUP2 SLOAD DUP2 MSTORE SWAP1 PUSH1 0x1 ADD SWAP1 PUSH1 0x20 ADD DUP1 DUP4 GT PUSH2 0x2CF JUMPI DUP3 SWAP1 SUB PUSH1 0x1F AND DUP3 ADD SWAP2 JUMPDEST POP POP POP POP POP DUP2 MSTORE PUSH1 0x20 ADD PUSH1 0x2 DUP3 ADD DUP1 SLOAD PUSH2 0x305 SWAP1 PUSH2 0x1817 JUMP JUMPDEST DUP1 PUSH1 0x1F ADD PUSH1 0x20 DUP1 SWAP2 DIV MUL PUSH1 0x20 ADD PUSH1 0x40 MLOAD SWAP1 DUP2 ADD PUSH1 0x40 MSTORE DUP1 SWAP3 SWAP2 SWAP1 DUP2 DUP2 MSTORE PUSH1 0x20 ADD DUP3 DUP1 SLOAD PUSH2 0x331 SWAP1 PUSH2 0x1817 JUMP JUMPDEST DUP1 ISZERO PUSH2 0x37E JUMPI DUP1 PUSH1 0x1F LT PUSH2 0x353 JUMPI PUSH2 0x100 DUP1 DUP4 SLOAD DIV MUL DUP4 MSTORE SWAP2 PUSH1 0x20 ADD SWAP2 PUSH2 0x37E JUMP JUMPDEST DUP3 ADD SWAP2 SWAP1 PUSH1 0x0 MSTORE PUSH1 0x20 PUSH1 0x0 KECCAK256 SWAP1 JUMPDEST DUP2 SLOAD DUP2 MSTORE SWAP1 PUSH1 0x1 ADD SWAP1 PUSH1 0x20 ADD DUP1 DUP4 GT PUSH2 0x361 JUMPI DUP3 SWAP1 SUB PUSH1 0x1F AND DUP3 ADD SWAP2 JUMPDEST POP POP POP POP POP DUP2 MSTORE PUSH1 0x20 ADD PUSH1 0x3 DUP3 ADD SLOAD DUP2 MSTORE PUSH1 0x20 ADD PUSH1 0x4 DUP3 ADD DUP1 SLOAD PUSH2 0x3A1 SWAP1 PUSH2 0x1817 JUMP JUMPDEST DUP1 PUSH1 0x1F ADD PUSH1 0x20 DUP1 SWAP2 DIV MUL PUSH1 0x20 ADD PUSH1 0x40 MLOAD SWAP1 DUP2 ADD PUSH1 0x40 MSTORE DUP1 SWAP3 SWAP2 SWAP1 DUP2 DUP2 MSTORE PUSH1 0x20 ADD DUP3 DUP1 SLOAD PUSH2 0x3CD SWAP1 PUSH2 0x1817 JUMP JUMPDEST DUP1 ISZERO PUSH2 0x41A JUMPI DUP1 PUSH1 0x1F LT PUSH2 0x3EF JUMPI PUSH2 0x100 DUP1 DUP4 SLOAD DIV MUL DUP4 MSTORE SWAP2 PUSH1 0x20 ADD SWAP2 PUSH2 0x41A JUMP JUMPDEST DUP3 ADD SWAP2 SWAP1 PUSH1 0x0 MSTORE PUSH1 0x20 PUSH1 0x0 KECCAK256 SWAP1 JUMPDEST DUP2 SLOAD DUP2 MSTORE SWAP1 PUSH1 0x1 ADD SWAP1 PUSH1 0x20 ADD DUP1 DUP4 GT PUSH2 0x3FD JUMPI DUP3 SWAP1 SUB PUSH1 0x1F AND DUP3 ADD SWAP2 JUMPDEST POP POP POP POP POP DUP2 MSTORE PUSH1 0x20 ADD PUSH1 0x5 DUP3 ADD DUP1 SLOAD PUSH2 0x433 SWAP1 PUSH2 0x1817 JUMP JUMPDEST DUP1 PUSH1 0x1F ADD PUSH1 0x20 DUP1 SWAP2 DIV MUL PUSH1 0x20 ADD PUSH1 0x40 MLOAD SWAP1 DUP2 ADD PUSH1 0x40 MSTORE DUP1 SWAP3 SWAP2 SWAP1 DUP2 DUP2 MSTORE PUSH1 0x20 ADD DUP3 DUP1 SLOAD PUSH2 0x45F SWAP1 PUSH2 0x1817 JUMP JUMPDEST DUP1 ISZERO PUSH2 0x4AC JUMPI DUP1 PUSH1 0x1F LT PUSH2 0x481 JUMPI PUSH2 0x100 DUP1 DUP4 SLOAD DIV MUL DUP4 MSTORE SWAP2 PUSH1 0x20 ADD SWAP2 PUSH2 0x4AC JUMP JUMPDEST DUP3 ADD SWAP2 SWAP1 PUSH1 0x0 MSTORE PUSH1 0x20 PUSH1 0x0 KECCAK256 SWAP1 JUMPDEST DUP2 SLOAD DUP2 MSTORE SWAP1 PUSH1 0x1 ADD SWAP1 PUSH1 0x20 ADD DUP1 DUP4 GT PUSH2 0x48F JUMPI DUP3 SWAP1 SUB PUSH1 0x1F AND DUP3 ADD SWAP2 JUMPDEST POP POP POP POP POP DUP2 MSTORE POP POP DUP2 MSTORE PUSH1 0x20 ADD SWAP1 PUSH1 0x1 ADD SWAP1 PUSH2 0x1AE JUMP JUMPDEST POP POP POP POP SWAP1 POP SWAP2 SWAP1 POP JUMP JUMPDEST PUSH1 0x0 DUP1 PUSH1 0x1 PUSH1 0x0 DUP6 PUSH20 0xFFFFFFFFFFFFFFFFFFFFFFFFFFFFFFFFFFFFFFFF AND PUSH20 0xFFFFFFFFFFFFFFFFFFFFFFFFFFFFFFFFFFFFFFFF AND DUP2 MSTORE PUSH1 0x20 ADD SWAP1 DUP2 MSTORE PUSH1 0x20 ADD PUSH1 0x0 KECCAK256 DUP1 SLOAD DUP1 PUSH1 0x20 MUL PUSH1 0x20 ADD PUSH1 0x40 MLOAD SWAP1 DUP2 ADD PUSH1 0x40 MSTORE DUP1 SWAP3 SWAP2 SWAP1 DUP2 DUP2 MSTORE PUSH1 0x20 ADD PUSH1 0x0 SWAP1 JUMPDEST DUP3 DUP3 LT ISZERO PUSH2 0x847 JUMPI DUP4 DUP3 SWAP1 PUSH1 0x0 MSTORE PUSH1 0x20 PUSH1 0x0 KECCAK256 SWAP1 PUSH1 0x6 MUL ADD PUSH1 0x40 MLOAD DUP1 PUSH1 0xC0 ADD PUSH1 0x40 MSTORE SWAP1 DUP2 PUSH1 0x0 DUP3 ADD DUP1 SLOAD PUSH2 0x564 SWAP1 PUSH2 0x1817 JUMP JUMPDEST DUP1 PUSH1 0x1F ADD PUSH1 0x20 DUP1 SWAP2 DIV MUL PUSH1 0x20 ADD PUSH1 0x40 MLOAD SWAP1 DUP2 ADD PUSH1 0x40 MSTORE DUP1 SWAP3 SWAP2 SWAP1 DUP2 DUP2 MSTORE PUSH1 0x20 ADD DUP3 DUP1 SLOAD PUSH2 0x590 SWAP1 PUSH2 0x1817 JUMP JUMPDEST DUP1 ISZERO PUSH2 0x5DD JUMPI DUP1 PUSH1 0x1F LT PUSH2 0x5B2 JUMPI PUSH2 0x100 DUP1 DUP4 SLOAD DIV MUL DUP4 MSTORE SWAP2 PUSH1 0x20 ADD SWAP2 PUSH2 0x5DD JUMP JUMPDEST DUP3 ADD SWAP2 SWAP1 PUSH1 0x0 MSTORE PUSH1 0x20 PUSH1 0x0 KECCAK256 SWAP1 JUMPDEST DUP2 SLOAD DUP2 MSTORE SWAP1 PUSH1 0x1 ADD SWAP1 PUSH1 0x20 ADD DUP1 DUP4 GT PUSH2 0x5C0 JUMPI DUP3 SWAP1 SUB PUSH1 0x1F AND DUP3 ADD SWAP2 JUMPDEST POP POP POP POP POP DUP2 MSTORE PUSH1 0x20 ADD PUSH1 0x1 DUP3 ADD DUP1 SLOAD PUSH2 0x5F6 SWAP1 PUSH2 0x1817 JUMP JUMPDEST DUP1 PUSH1 0x1F ADD PUSH1 0x20 DUP1 SWAP2 DIV MUL PUSH1 0x20 ADD PUSH1 0x40 MLOAD SWAP1 DUP2 ADD PUSH1 0x40 MSTORE DUP1 SWAP3 SWAP2 SWAP1 DUP2 DUP2 MSTORE PUSH1 0x20 ADD DUP3 DUP1 SLOAD PUSH2 0x622 SWAP1 PUSH2 0x1817 JUMP JUMPDEST DUP1 ISZERO PUSH2 0x66F JUMPI DUP1 PUSH1 0x1F LT PUSH2 0x644 JUMPI PUSH2 0x100 DUP1 DUP4 SLOAD DIV MUL DUP4 MSTORE SWAP2 PUSH1 0x20 ADD SWAP2 PUSH2 0x66F JUMP JUMPDEST DUP3 ADD SWAP2 SWAP1 PUSH1 0x0 MSTORE PUSH1 0x20 PUSH1 0x0 KECCAK256 SWAP1 JUMPDEST DUP2 SLOAD DUP2 MSTORE SWAP1 PUSH1 0x1 ADD SWAP1 PUSH1 0x20 ADD DUP1 DUP4 GT PUSH2 0x652 JUMPI DUP3 SWAP1 SUB PUSH1 0x1F AND DUP3 ADD SWAP2 JUMPDEST POP POP POP POP POP DUP2 MSTORE PUSH1 0x20 ADD PUSH1 0x2 DUP3 ADD DUP1 SLOAD PUSH2 0x688 SWAP1 PUSH2 0x1817 JUMP JUMPDEST DUP1 PUSH1 0x1F ADD PUSH1 0x20 DUP1 SWAP2 DIV MUL PUSH1 0x20 ADD PUSH1 0x40 MLOAD SWAP1 DUP2 ADD PUSH1 0x40 MSTORE DUP1 SWAP3 SWAP2 SWAP1 DUP2 DUP2 MSTORE PUSH1 0x20 ADD DUP3 DUP1 SLOAD PUSH2 0x6B4 SWAP1 PUSH2 0x1817 JUMP JUMPDEST DUP1 ISZERO PUSH2 0x701 JUMPI DUP1 PUSH1 0x1F LT PUSH2 0x6D6 JUMPI PUSH2 0x100 DUP1 DUP4 SLOAD DIV MUL DUP4 MSTORE SWAP2 PUSH1 0x20 ADD SWAP2 PUSH2 0x701 JUMP JUMPDEST DUP3 ADD SWAP2 SWAP1 PUSH1 0x0 MSTORE PUSH1 0x20 PUSH1 0x0 KECCAK256 SWAP1 JUMPDEST DUP2 SLOAD DUP2 MSTORE SWAP1 PUSH1 0x1 ADD SWAP1 PUSH1 0x20 ADD DUP1 DUP4 GT PUSH2 0x6E4 JUMPI DUP3 SWAP1 SUB PUSH1 0x1F AND DUP3 ADD SWAP2 JUMPDEST POP POP POP POP POP DUP2 MSTORE PUSH1 0x20 ADD PUSH1 0x3 DUP3 ADD SLOAD DUP2 MSTORE PUSH1 0x20 ADD PUSH1 0x4 DUP3 ADD DUP1 SLOAD PUSH2 0x724 SWAP1 PUSH2 0x1817 JUMP JUMPDEST DUP1 PUSH1 0x1F ADD PUSH1 0x20 DUP1 SWAP2 DIV MUL PUSH1 0x20 ADD PUSH1 0x40 MLOAD SWAP1 DUP2 ADD PUSH1 0x40 MSTORE DUP1 SWAP3 SWAP2 SWAP1 DUP2 DUP2 MSTORE PUSH1 0x20 ADD DUP3 DUP1 SLOAD PUSH2 0x750 SWAP1 PUSH2 0x1817 JUMP JUMPDEST DUP1 ISZERO PUSH2 0x79D JUMPI DUP1 PUSH1 0x1F LT PUSH2 0x772 JUMPI PUSH2 0x100 DUP1 DUP4 SLOAD DIV MUL DUP4 MSTORE SWAP2 PUSH1 0x20 ADD SWAP2 PUSH2 0x79D JUMP JUMPDEST DUP3 ADD SWAP2 SWAP1 PUSH1 0x0 MSTORE PUSH1 0x20 PUSH1 0x0 KECCAK256 SWAP1 JUMPDEST DUP2 SLOAD DUP2 MSTORE SWAP1 PUSH1 0x1 ADD SWAP1 PUSH1 0x20 ADD DUP1 DUP4 GT PUSH2 0x780 JUMPI DUP3 SWAP1 SUB PUSH1 0x1F AND DUP3 ADD SWAP2 JUMPDEST POP POP POP POP POP DUP2 MSTORE PUSH1 0x20 ADD PUSH1 0x5 DUP3 ADD DUP1 SLOAD PUSH2 0x7B6 SWAP1 PUSH2 0x1817 JUMP JUMPDEST DUP1 PUSH1 0x1F ADD PUSH1 0x20 DUP1 SWAP2 DIV MUL PUSH1 0x20 ADD PUSH1 0x40 MLOAD SWAP1 DUP2 ADD PUSH1 0x40 MSTORE DUP1 SWAP3 SWAP2 SWAP1 DUP2 DUP2 MSTORE PUSH1 0x20 ADD DUP3 DUP1 SLOAD PUSH2 0x7E2 SWAP1 PUSH2 0x1817 JUMP JUMPDEST DUP1 ISZERO PUSH2 0x82F JUMPI DUP1 PUSH1 0x1F LT PUSH2 0x804 JUMPI PUSH2 0x100 DUP1 DUP4 SLOAD DIV MUL DUP4 MSTORE SWAP2 PUSH1 0x20 ADD SWAP2 PUSH2 0x82F JUMP JUMPDEST DUP3 ADD SWAP2 SWAP1 PUSH1 0x0 MSTORE PUSH1 0x20 PUSH1 0x0 KECCAK256 SWAP1 JUMPDEST DUP2 SLOAD DUP2 MSTORE SWAP1 PUSH1 0x1 ADD SWAP1 PUSH1 0x20 ADD DUP1 DUP4 GT PUSH2 0x812 JUMPI DUP3 SWAP1 SUB PUSH1 0x1F AND DUP3 ADD SWAP2 JUMPDEST POP POP POP POP POP DUP2 MSTORE POP POP DUP2 MSTORE PUSH1 0x20 ADD SWAP1 PUSH1 0x1 ADD SWAP1 PUSH2 0x531 JUMP JUMPDEST POP POP POP POP SWAP1 POP PUSH1 0x0 JUMPDEST DUP2 MLOAD DUP2 LT ISZERO PUSH2 0x8AA JUMPI DUP4 DUP1 MLOAD SWAP1 PUSH1 0x20 ADD KECCAK256 DUP3 DUP3 DUP2 MLOAD DUP2 LT PUSH2 0x874 JUMPI PUSH2 0x873 PUSH2 0x1848 JUMP JUMPDEST JUMPDEST PUSH1 0x20 MUL PUSH1 0x20 ADD ADD MLOAD PUSH1 0x0 ADD MLOAD DUP1 MLOAD SWAP1 PUSH1 0x20 ADD KECCAK256 SUB PUSH2 0x897 JUMPI PUSH1 0x1 SWAP3 POP POP POP PUSH2 0x8B1 JUMP JUMPDEST DUP1 DUP1 PUSH2 0x8A2 SWAP1 PUSH2 0x18A6 JUMP JUMPDEST SWAP2 POP POP PUSH2 0x850 JUMP JUMPDEST POP PUSH1 0x0 SWAP2 POP POP JUMPDEST SWAP3 SWAP2 POP POP JUMP JUMPDEST PUSH1 0x0 DUP1 SLOAD SWAP1 PUSH2 0x100 EXP SWAP1 DIV PUSH20 0xFFFFFFFFFFFFFFFFFFFFFFFFFFFFFFFFFFFFFFFF AND PUSH20 0xFFFFFFFFFFFFFFFFFFFFFFFFFFFFFFFFFFFFFFFF AND CALLER PUSH20 0xFFFFFFFFFFFFFFFFFFFFFFFFFFFFFFFFFFFFFFFF AND EQ PUSH2 0x945 JUMPI PUSH1 0x40 MLOAD PUSH32 0x8C379A000000000000000000000000000000000000000000000000000000000 DUP2 MSTORE PUSH1 0x4 ADD PUSH2 0x93C SWAP1 PUSH2 0x1971 JUMP JUMPDEST PUSH1 0x40 MLOAD DUP1 SWAP2 SUB SWAP1 REVERT JUMPDEST PUSH1 0x2 DUP7 PUSH1 0x40 MLOAD PUSH2 0x955 SWAP2 SWAP1 PUSH2 0x19CD JUMP JUMPDEST SWAP1 DUP2 MSTORE PUSH1 0x20 ADD PUSH1 0x40 MLOAD DUP1 SWAP2 SUB SWAP1 KECCAK256 PUSH1 0x0 SWAP1 SLOAD SWAP1 PUSH2 0x100 EXP SWAP1 DIV PUSH1 0xFF AND ISZERO PUSH2 0x9B1 JUMPI PUSH1 0x40 MLOAD PUSH32 0x8C379A000000000000000000000000000000000000000000000000000000000 DUP2 MSTORE PUSH1 0x4 ADD PUSH2 0x9A8 SWAP1 PUSH2 0x1A30 JUMP JUMPDEST PUSH1 0x40 MLOAD DUP1 SWAP2 SUB SWAP1 REVERT JUMPDEST PUSH1 0x0 PUSH1 0x40 MLOAD DUP1 PUSH1 0xC0 ADD PUSH1 0x40 MSTORE DUP1 DUP9 DUP2 MSTORE PUSH1 0x20 ADD DUP7 DUP2 MSTORE PUSH1 0x20 ADD DUP6 DUP2 MSTORE PUSH1 0x20 ADD TIMESTAMP DUP2 MSTORE PUSH1 0x20 ADD DUP5 DUP2 MSTORE PUSH1 0x20 ADD DUP4 DUP2 MSTORE POP SWAP1 POP PUSH1 0x1 PUSH1 0x0 DUP8 PUSH20 0xFFFFFFFFFFFFFFFFFFFFFFFFFFFFFFFFFFFFFFFF AND PUSH20 0xFFFFFFFFFFFFFFFFFFFFFFFFFFFFFFFFFFFFFFFF AND DUP2 MSTORE PUSH1 0x20 ADD SWAP1 DUP2 MSTORE PUSH1 0x20 ADD PUSH1 0x0 KECCAK256 DUP2 SWAP1 DUP1 PUSH1 0x1 DUP2 SLOAD ADD DUP1 DUP3 SSTORE DUP1 SWAP2 POP POP PUSH1 0x1 SWAP1 SUB SWAP1 PUSH1 0x0 MSTORE PUSH1 0x20 PUSH1 0x0 KECCAK256 SWAP1 PUSH1 0x6 MUL ADD PUSH1 0x0 SWAP1 SWAP2 SWAP1 SWAP2 SWAP1 SWAP2 POP PUSH1 0x0 DUP3 ADD MLOAD DUP2 PUSH1 0x0 ADD SWAP1 DUP2 PUSH2 0xA60 SWAP2 SWAP1 PUSH2 0x1BFC JUMP JUMPDEST POP PUSH1 0x20 DUP3 ADD MLOAD DUP2 PUSH1 0x1 ADD SWAP1 DUP2 PUSH2 0xA76 SWAP2 SWAP1 PUSH2 0x1BFC JUMP JUMPDEST POP PUSH1 0x40 DUP3 ADD MLOAD DUP2 PUSH1 0x2 ADD SWAP1 DUP2 PUSH2 0xA8C SWAP2 SWAP1 PUSH2 0x1BFC JUMP JUMPDEST POP PUSH1 0x60 DUP3 ADD MLOAD DUP2 PUSH1 0x3 ADD SSTORE PUSH1 0x80 DUP3 ADD MLOAD DUP2 PUSH1 0x4 ADD SWAP1 DUP2 PUSH2 0xAAC SWAP2 SWAP1 PUSH2 0x1BFC JUMP JUMPDEST POP PUSH1 0xA0 DUP3 ADD MLOAD DUP2 PUSH1 0x5 ADD SWAP1 DUP2 PUSH2 0xAC2 SWAP2 SWAP1 PUSH2 0x1BFC JUMP JUMPDEST POP POP POP PUSH1 0x1 PUSH1 0x2 DUP9 PUSH1 0x40 MLOAD PUSH2 0xAD7 SWAP2 SWAP1 PUSH2 0x19CD JUMP JUMPDEST SWAP1 DUP2 MSTORE PUSH1 0x20 ADD PUSH1 0x40 MLOAD DUP1 SWAP2 SUB SWAP1 KECCAK256 PUSH1 0x0 PUSH2 0x100 EXP DUP2 SLOAD DUP2 PUSH1 0xFF MUL NOT AND SWAP1 DUP4 ISZERO ISZERO MUL OR SWAP1 SSTORE POP DUP6 PUSH20 0xFFFFFFFFFFFFFFFFFFFFFFFFFFFFFFFFFFFFFFFF AND DUP8 PUSH1 0x40 MLOAD PUSH2 0xB21 SWAP2 SWAP1 PUSH2 0x19CD JUMP JUMPDEST PUSH1 0x40 MLOAD DUP1 SWAP2 SUB SWAP1 KECCAK256 PUSH32 0x18B25641824764EF57536418832EC3B07BAF900CD43ED703082A392163082E4F DUP8 DUP8 TIMESTAMP DUP9 PUSH1 0x40 MLOAD PUSH2 0xB5E SWAP5 SWAP4 SWAP3 SWAP2 SWAP1 PUSH2 0x1D16 JUMP JUMPDEST PUSH1 0x40 MLOAD DUP1 SWAP2 SUB SWAP1 LOG3 POP POP POP POP POP POP POP JUMP JUMPDEST PUSH2 0xB77 PUSH2 0x1110 JUMP JUMPDEST PUSH1 0x0 PUSH1 0x1 PUSH1 0x0 DUP6 PUSH20 0xFFFFFFFFFFFFFFFFFFFFFFFFFFFFFFFFFFFFFFFF AND PUSH20 0xFFFFFFFFFFFFFFFFFFFFFFFFFFFFFFFFFFFFFFFF AND DUP2 MSTORE PUSH1 0x20 ADD SWAP1 DUP2 MSTORE PUSH1 0x20 ADD PUSH1 0x0 KECCAK256 DUP1 SLOAD DUP1 PUSH1 0x20 MUL PUSH1 0x20 ADD PUSH1 0x40 MLOAD SWAP1 DUP2 ADD PUSH1 0x40 MSTORE DUP1 SWAP3 SWAP2 SWAP1 DUP2 DUP2 MSTORE PUSH1 0x20 ADD PUSH1 0x0 SWAP1 JUMPDEST DUP3 DUP3 LT ISZERO PUSH2 0xEEE JUMPI DUP4 DUP3 SWAP1 PUSH1 0x0 MSTORE PUSH1 0x20 PUSH1 0x0 KECCAK256 SWAP1 PUSH1 0x6 MUL ADD PUSH1 0x40 MLOAD DUP1 PUSH1 0xC0 ADD PUSH1 0x40 MSTORE SWAP1 DUP2 PUSH1 0x0 DUP3 ADD DUP1 SLOAD PUSH2 0xC0B SWAP1 PUSH2 0x1817 JUMP JUMPDEST DUP1 PUSH1 0x1F ADD PUSH1 0x20 DUP1 SWAP2 DIV MUL PUSH1 0x20 ADD PUSH1 0x40 MLOAD SWAP1 DUP2 ADD PUSH1 0x40 MSTORE DUP1 SWAP3 SWAP2 SWAP1 DUP2 DUP2 MSTORE PUSH1 0x20 ADD DUP3 DUP1 SLOAD PUSH2 0xC37 SWAP1 PUSH2 0x1817 JUMP JUMPDEST DUP1 ISZERO PUSH2 0xC84 JUMPI DUP1 PUSH1 0x1F LT PUSH2 0xC59 JUMPI PUSH2 0x100 DUP1 DUP4 SLOAD DIV MUL DUP4 MSTORE SWAP2 PUSH1 0x20 ADD SWAP2 PUSH2 0xC84 JUMP JUMPDEST DUP3 ADD SWAP2 SWAP1 PUSH1 0x0 MSTORE PUSH1 0x20 PUSH1 0x0 KECCAK256 SWAP1 JUMPDEST DUP2 SLOAD DUP2 MSTORE SWAP1 PUSH1 0x1 ADD SWAP1 PUSH1 0x20 ADD DUP1 DUP4 GT PUSH2 0xC67 JUMPI DUP3 SWAP1 SUB PUSH1 0x1F AND DUP3 ADD SWAP2 JUMPDEST POP POP POP POP POP DUP2 MSTORE PUSH1 0x20 ADD PUSH1 0x1 DUP3 ADD DUP1 SLOAD PUSH2 0xC9D SWAP1 PUSH2 0x1817 JUMP JUMPDEST DUP1 PUSH1 0x1F ADD PUSH1 0x20 DUP1 SWAP2 DIV MUL PUSH1 0x20 ADD PUSH1 0x40 MLOAD SWAP1 DUP2 ADD PUSH1 0x40 MSTORE DUP1 SWAP3 SWAP2 SWAP1 DUP2 DUP2 MSTORE PUSH1 0x20 ADD DUP3 DUP1 SLOAD PUSH2 0xCC9 SWAP1 PUSH2 0x1817 JUMP JUMPDEST DUP1 ISZERO PUSH2 0xD16 JUMPI DUP1 PUSH1 0x1F LT PUSH2 0xCEB JUMPI PUSH2 0x100 DUP1 DUP4 SLOAD DIV MUL DUP4 MSTORE SWAP2 PUSH1 0x20 ADD SWAP2 PUSH2 0xD16 JUMP JUMPDEST DUP3 ADD SWAP2 SWAP1 PUSH1 0x0 MSTORE PUSH1 0x20 PUSH1 0x0 KECCAK256 SWAP1 JUMPDEST DUP2 SLOAD DUP2 MSTORE SWAP1 PUSH1 0x1 ADD SWAP1 PUSH1 0x20 ADD DUP1 DUP4 GT PUSH2 0xCF9 JUMPI DUP3 SWAP1 SUB PUSH1 0x1F AND DUP3 ADD SWAP2 JUMPDEST POP POP POP POP POP DUP2 MSTORE PUSH1 0x20 ADD PUSH1 0x2 DUP3 ADD DUP1 SLOAD PUSH2 0xD2F SWAP1 PUSH2 0x1817 JUMP JUMPDEST DUP1 PUSH1 0x1F ADD PUSH1 0x20 DUP1 SWAP2 DIV MUL PUSH1 0x20 ADD PUSH1 0x40 MLOAD SWAP1 DUP2 ADD PUSH1 0x40 MSTORE DUP1 SWAP3 SWAP2 SWAP1 DUP2 DUP2 MSTORE PUSH1 0x20 ADD DUP3 DUP1 SLOAD PUSH2 0xD5B SWAP1 PUSH2 0x1817 JUMP JUMPDEST DUP1 ISZERO PUSH2 0xDA8 JUMPI DUP1 PUSH1 0x1F LT PUSH2 0xD7D JUMPI PUSH2 0x100 DUP1 DUP4 SLOAD DIV MUL DUP4 MSTORE SWAP2 PUSH1 0x20 ADD SWAP2 PUSH2 0xDA8 JUMP JUMPDEST DUP3 ADD SWAP2 SWAP1 PUSH1 0x0 MSTORE PUSH1 0x20 PUSH1 0x0 KECCAK256 SWAP1 JUMPDEST DUP2 SLOAD DUP2 MSTORE SWAP1 PUSH1 0x1 ADD SWAP1 PUSH1 0x20 ADD DUP1 DUP4 GT PUSH2 0xD8B JUMPI DUP3 SWAP1 SUB PUSH1 0x1F AND DUP3 ADD SWAP2 JUMPDEST POP POP POP POP POP DUP2 MSTORE PUSH1 0x20 ADD PUSH1 0x3 DUP3 ADD SLOAD DUP2 MSTORE PUSH1 0x20 ADD PUSH1 0x4 DUP3 ADD DUP1 SLOAD PUSH2 0xDCB SWAP1 PUSH2 0x1817 JUMP JUMPDEST DUP1 PUSH1 0x1F ADD PUSH1 0x20 DUP1 SWAP2 DIV MUL PUSH1 0x20 ADD PUSH1 0x40 MLOAD SWAP1 DUP2 ADD PUSH1 0x40 MSTORE DUP1 SWAP3 SWAP2 SWAP1 DUP2 DUP2 MSTORE PUSH1 0x20 ADD DUP3 DUP1 SLOAD PUSH2 0xDF7 SWAP1 PUSH2 0x1817 JUMP JUMPDEST DUP1 ISZERO PUSH2 0xE44 JUMPI DUP1 PUSH1 0x1F LT PUSH2 0xE19 JUMPI PUSH2 0x100 DUP1 DUP4 SLOAD DIV MUL DUP4 MSTORE SWAP2 PUSH1 0x20 ADD SWAP2 PUSH2 0xE44 JUMP JUMPDEST DUP3 ADD SWAP2 SWAP1 PUSH1 0x0 MSTORE PUSH1 0x20 PUSH1 0x0 KECCAK256 SWAP1 JUMPDEST DUP2 SLOAD DUP2 MSTORE SWAP1 PUSH1 0x1 ADD SWAP1 PUSH1 0x20 ADD DUP1 DUP4 GT PUSH2 0xE27 JUMPI DUP3 SWAP1 SUB PUSH1 0x1F AND DUP3 ADD SWAP2 JUMPDEST POP POP POP POP POP DUP2 MSTORE PUSH1 0x20 ADD PUSH1 0x5 DUP3 ADD DUP1 SLOAD PUSH2 0xE5D SWAP1 PUSH2 0x1817 JUMP JUMPDEST DUP1 PUSH1 0x1F ADD PUSH1 0x20 DUP1 SWAP2 DIV MUL PUSH1 0x20 ADD PUSH1 0x40 MLOAD SWAP1 DUP2 ADD PUSH1 0x40 MSTORE DUP1 SWAP3 SWAP2 SWAP1 DUP2 DUP2 MSTORE PUSH1 0x20 ADD DUP3 DUP1 SLOAD PUSH2 0xE89 SWAP1 PUSH2 0x1817 JUMP JUMPDEST DUP1 ISZERO PUSH2 0xED6 JUMPI DUP1 PUSH1 0x1F LT PUSH2 0xEAB JUMPI PUSH2 0x100 DUP1 DUP4 SLOAD DIV MUL DUP4 MSTORE SWAP2 PUSH1 0x20 ADD SWAP2 PUSH2 0xED6 JUMP JUMPDEST DUP3 ADD SWAP2 SWAP1 PUSH1 0x0 MSTORE PUSH1 0x20 PUSH1 0x0 KECCAK256 SWAP1 JUMPDEST DUP2 SLOAD DUP2 MSTORE SWAP1 PUSH1 0x1 ADD SWAP1 PUSH1 0x20 ADD DUP1 DUP4 GT PUSH2 0xEB9 JUMPI DUP3 SWAP1 SUB PUSH1 0x1F AND DUP3 ADD SWAP2 JUMPDEST POP POP POP POP POP DUP2 MSTORE POP POP DUP2 MSTORE PUSH1 0x20 ADD SWAP1 PUSH1 0x1 ADD SWAP1 PUSH2 0xBD8 JUMP JUMPDEST POP POP POP POP SWAP1 POP PUSH1 0x0 JUMPDEST DUP2 MLOAD DUP2 LT ISZERO PUSH2 0xF6A JUMPI DUP4 DUP1 MLOAD SWAP1 PUSH1 0x20 ADD KECCAK256 DUP3 DUP3 DUP2 MLOAD DUP2 LT PUSH2 0xF1B JUMPI PUSH2 0xF1A PUSH2 0x1848 JUMP JUMPDEST JUMPDEST PUSH1 0x20 MUL PUSH1 0x20 ADD ADD MLOAD PUSH1 0x0 ADD MLOAD DUP1 MLOAD SWAP1 PUSH1 0x20 ADD KECCAK256 SUB PUSH2 0xF57 JUMPI DUP2 DUP2 DUP2 MLOAD DUP2 LT PUSH2 0xF46 JUMPI PUSH2 0xF45 PUSH2 0x1848 JUMP JUMPDEST JUMPDEST PUSH1 0x20 MUL PUSH1 0x20 ADD ADD MLOAD SWAP3 POP POP POP PUSH2 0xFA6 JUMP JUMPDEST DUP1 DUP1 PUSH2 0xF62 SWAP1 PUSH2 0x18A6 JUMP JUMPDEST SWAP2 POP POP PUSH2 0xEF7 JUMP JUMPDEST POP PUSH1 0x40 MLOAD PUSH32 0x8C379A000000000000000000000000000000000000000000000000000000000 DUP2 MSTORE PUSH1 0x4 ADD PUSH2 0xF9D SWAP1 PUSH2 0x1DBC JUMP JUMPDEST PUSH1 0x40 MLOAD DUP1 SWAP2 SUB SWAP1 REVERT JUMPDEST SWAP3 SWAP2 POP POP JUMP JUMPDEST PUSH1 0x0 DUP1 SLOAD SWAP1 PUSH2 0x100 EXP SWAP1 DIV PUSH20 0xFFFFFFFFFFFFFFFFFFFFFFFFFFFFFFFFFFFFFFFF AND DUP2 JUMP JUMPDEST PUSH1 0x0 DUP1 SLOAD SWAP1 PUSH2 0x100 EXP SWAP1 DIV PUSH20 0xFFFFFFFFFFFFFFFFFFFFFFFFFFFFFFFFFFFFFFFF AND PUSH20 0xFFFFFFFFFFFFFFFFFFFFFFFFFFFFFFFFFFFFFFFF AND CALLER PUSH20 0xFFFFFFFFFFFFFFFFFFFFFFFFFFFFFFFFFFFFFFFF AND EQ PUSH2 0x105E JUMPI PUSH1 0x40 MLOAD PUSH32 0x8C379A000000000000000000000000000000000000000000000000000000000 DUP2 MSTORE PUSH1 0x4 ADD PUSH2 0x1055 SWAP1 PUSH2 0x1971 JUMP JUMPDEST PUSH1 0x40 MLOAD DUP1 SWAP2 SUB SWAP1 REVERT JUMPDEST PUSH1 0x0 PUSH20 0xFFFFFFFFFFFFFFFFFFFFFFFFFFFFFFFFFFFFFFFF AND DUP2 PUSH20 0xFFFFFFFFFFFFFFFFFFFFFFFFFFFFFFFFFFFFFFFF AND SUB PUSH2 0x10CD JUMPI PUSH1 0x40 MLOAD PUSH32 0x8C379A000000000000000000000000000000000000000000000000000000000 DUP2 MSTORE PUSH1 0x4 ADD PUSH2 0x10C4 SWAP1 PUSH2 0x1E28 JUMP JUMPDEST PUSH1 0x40 MLOAD DUP1 SWAP2 SUB SWAP1 REVERT JUMPDEST DUP1 PUSH1 0x0 DUP1 PUSH2 0x100 EXP DUP2 SLOAD DUP2 PUSH20 0xFFFFFFFFFFFFFFFFFFFFFFFFFFFFFFFFFFFFFFFF MUL NOT AND SWAP1 DUP4 PUSH20 0xFFFFFFFFFFFFFFFFFFFFFFFFFFFFFFFFFFFFFFFF AND MUL OR SWAP1 SSTORE POP POP JUMP JUMPDEST PUSH1 0x40 MLOAD DUP1 PUSH1 0xC0 ADD PUSH1 0x40 MSTORE DUP1 PUSH1 0x60 DUP2 MSTORE PUSH1 0x20 ADD PUSH1 0x60 DUP2 MSTORE PUSH1 0x20 ADD PUSH1 0x60 DUP2 MSTORE PUSH1 0x20 ADD PUSH1 0x0 DUP2 MSTORE PUSH1 0x20 ADD PUSH1 0x60 DUP2 MSTORE PUSH1 0x20 ADD PUSH1 0x60 DUP2 MSTORE POP SWAP1 JUMP JUMPDEST PUSH1 0x0 PUSH1 0x40 MLOAD SWAP1 POP SWAP1 JUMP JUMPDEST PUSH1 0x0 DUP1 REVERT JUMPDEST PUSH1 0x0 DUP1 REVERT JUMPDEST PUSH1 0x0 PUSH20 0xFFFFFFFFFFFFFFFFFFFFFFFFFFFFFFFFFFFFFFFF DUP3 AND SWAP1 POP SWAP2 SWAP1 POP JUMP JUMPDEST PUSH1 0x0 PUSH2 0x1185 DUP3 PUSH2 0x115A JUMP JUMPDEST SWAP1 POP SWAP2 SWAP1 POP JUMP JUMPDEST PUSH2 0x1195 DUP2 PUSH2 0x117A JUMP JUMPDEST DUP2 EQ PUSH2 0x11A0 JUMPI PUSH1 0x0 DUP1 REVERT JUMPDEST POP JUMP JUMPDEST PUSH1 0x0 DUP2 CALLDATALOAD SWAP1 POP PUSH2 0x11B2 DUP2 PUSH2 0x118C JUMP JUMPDEST SWAP3 SWAP2 POP POP JUMP JUMPDEST PUSH1 0x0 PUSH1 0x20 DUP3 DUP5 SUB SLT ISZERO PUSH2 0x11CE JUMPI PUSH2 0x11CD PUSH2 0x1150 JUMP JUMPDEST JUMPDEST PUSH1 0x0 PUSH2 0x11DC DUP5 DUP3 DUP6 ADD PUSH2 0x11A3 JUMP JUMPDEST SWAP2 POP POP SWAP3 SWAP2 POP POP JUMP JUMPDEST PUSH1 0x0 DUP2 MLOAD SWAP1 POP SWAP2 SWAP1 POP JUMP JUMPDEST PUSH1 0x0 DUP3 DUP3 MSTORE PUSH1 0x20 DUP3 ADD SWAP1 POP SWAP3 SWAP2 POP POP JUMP JUMPDEST PUSH1 0x0 DUP2 SWAP1 POP PUSH1 0x20 DUP3 ADD SWAP1 POP SWAP2 SWAP1 POP JUMP JUMPDEST PUSH1 0x0 DUP2 MLOAD SWAP1 POP SWAP2 SWAP1 POP JUMP JUMPDEST PUSH1 0x0 DUP3 DUP3 MSTORE PUSH1 0x20 DUP3 ADD SWAP1 POP SWAP3 SWAP2 POP POP JUMP JUMPDEST PUSH1 0x0 JUMPDEST DUP4 DUP2 LT ISZERO PUSH2 0x124B JUMPI DUP1 DUP3 ADD MLOAD DUP2 DUP5 ADD MSTORE PUSH1 0x20 DUP2 ADD SWAP1 POP PUSH2 0x1230 JUMP JUMPDEST PUSH1 0x0 DUP5 DUP5 ADD MSTORE POP POP POP POP JUMP JUMPDEST PUSH1 0x0 PUSH1 0x1F NOT PUSH1 0x1F DUP4 ADD AND SWAP1 POP SWAP2 SWAP1 POP JUMP JUMPDEST PUSH1 0x0 PUSH2 0x1273 DUP3 PUSH2 0x1211 JUMP JUMPDEST PUSH2 0x127D DUP2 DUP6 PUSH2 0x121C JUMP JUMPDEST SWAP4 POP PUSH2 0x128D DUP2 DUP6 PUSH1 0x20 DUP7 ADD PUSH2 0x122D JUMP JUMPDEST PUSH2 0x1296 DUP2 PUSH2 0x1257 JUMP JUMPDEST DUP5 ADD SWAP2 POP POP SWAP3 SWAP2 POP POP JUMP JUMPDEST PUSH1 0x0 DUP2 SWAP1 POP SWAP2 SWAP1 POP JUMP JUMPDEST PUSH2 0x12B4 DUP2 PUSH2 0x12A1 JUMP JUMPDEST DUP3 MSTORE POP POP JUMP JUMPDEST PUSH1 0x0 PUSH1 0xC0 DUP4 ADD PUSH1 0x0 DUP4 ADD MLOAD DUP5 DUP3 SUB PUSH1 0x0 DUP7 ADD MSTORE PUSH2 0x12D7 DUP3 DUP3 PUSH2 0x1268 JUMP JUMPDEST SWAP2 POP POP PUSH1 0x20 DUP4 ADD MLOAD DUP5 DUP3 SUB PUSH1 0x20 DUP7 ADD MSTORE PUSH2 0x12F1 DUP3 DUP3 PUSH2 0x1268 JUMP JUMPDEST SWAP2 POP POP PUSH1 0x40 DUP4 ADD MLOAD DUP5 DUP3 SUB PUSH1 0x40 DUP7 ADD MSTORE PUSH2 0x130B DUP3 DUP3 PUSH2 0x1268 JUMP JUMPDEST SWAP2 POP POP PUSH1 0x60 DUP4 ADD MLOAD PUSH2 0x1320 PUSH1 0x60 DUP7 ADD DUP3 PUSH2 0x12AB JUMP JUMPDEST POP PUSH1 0x80 DUP4 ADD MLOAD DUP5 DUP3 SUB PUSH1 0x80 DUP7 ADD MSTORE PUSH2 0x1338 DUP3 DUP3 PUSH2 0x1268 JUMP JUMPDEST SWAP2 POP POP PUSH1 0xA0 DUP4 ADD MLOAD DUP5 DUP3 SUB PUSH1 0xA0 DUP7 ADD MSTORE PUSH2 0x1352 DUP3 DUP3 PUSH2 0x1268 JUMP JUMPDEST SWAP2 POP POP DUP1 SWAP2 POP POP SWAP3 SWAP2 POP POP JUMP JUMPDEST PUSH1 0x0 PUSH2 0x136B DUP4 DUP4 PUSH2 0x12BA JUMP JUMPDEST SWAP1 POP SWAP3 SWAP2 POP POP JUMP JUMPDEST PUSH1 0x0 PUSH1 0x20 DUP3 ADD SWAP1 POP SWAP2 SWAP1 POP JUMP JUMPDEST PUSH1 0x0 PUSH2 0x138B DUP3 PUSH2 0x11E5 JUMP JUMPDEST PUSH2 0x1395 DUP2 DUP6 PUSH2 0x11F0 JUMP JUMPDEST SWAP4 POP DUP4 PUSH1 0x20 DUP3 MUL DUP6 ADD PUSH2 0x13A7 DUP6 PUSH2 0x1201 JUMP JUMPDEST DUP1 PUSH1 0x0 JUMPDEST DUP6 DUP2 LT ISZERO PUSH2 0x13E3 JUMPI DUP5 DUP5 SUB DUP10 MSTORE DUP2 MLOAD PUSH2 0x13C4 DUP6 DUP3 PUSH2 0x135F JUMP JUMPDEST SWAP5 POP PUSH2 0x13CF DUP4 PUSH2 0x1373 JUMP JUMPDEST SWAP3 POP PUSH1 0x20 DUP11 ADD SWAP10 POP POP PUSH1 0x1 DUP2 ADD SWAP1 POP PUSH2 0x13AB JUMP JUMPDEST POP DUP3 SWAP8 POP DUP8 SWAP6 POP POP POP POP POP POP SWAP3 SWAP2 POP POP JUMP JUMPDEST PUSH1 0x0 PUSH1 0x20 DUP3 ADD SWAP1 POP DUP2 DUP2 SUB PUSH1 0x0 DUP4 ADD MSTORE PUSH2 0x140F DUP2 DUP5 PUSH2 0x1380 JUMP JUMPDEST SWAP1 POP SWAP3 SWAP2 POP POP JUMP JUMPDEST PUSH1 0x0 DUP1 REVERT JUMPDEST PUSH1 0x0 DUP1 REVERT JUMPDEST PUSH32 0x4E487B7100000000000000000000000000000000000000000000000000000000 PUSH1 0x0 MSTORE PUSH1 0x41 PUSH1 0x4 MSTORE PUSH1 0x24 PUSH1 0x0 REVERT JUMPDEST PUSH2 0x1459 DUP3 PUSH2 0x1257 JUMP JUMPDEST DUP2 ADD DUP2 DUP2 LT PUSH8 0xFFFFFFFFFFFFFFFF DUP3 GT OR ISZERO PUSH2 0x1478 JUMPI PUSH2 0x1477 PUSH2 0x1421 JUMP JUMPDEST JUMPDEST DUP1 PUSH1 0x40 MSTORE POP POP POP JUMP JUMPDEST PUSH1 0x0 PUSH2 0x148B PUSH2 0x1146 JUMP JUMPDEST SWAP1 POP PUSH2 0x1497 DUP3 DUP3 PUSH2 0x1450 JUMP JUMPDEST SWAP2 SWAP1 POP JUMP JUMPDEST PUSH1 0x0 PUSH8 0xFFFFFFFFFFFFFFFF DUP3 GT ISZERO PUSH2 0x14B7 JUMPI PUSH2 0x14B6 PUSH2 0x1421 JUMP JUMPDEST JUMPDEST PUSH2 0x14C0 DUP3 PUSH2 0x1257 JUMP JUMPDEST SWAP1 POP PUSH1 0x20 DUP2 ADD SWAP1 POP SWAP2 SWAP1 POP JUMP JUMPDEST DUP3 DUP2 DUP4 CALLDATACOPY PUSH1 0x0 DUP4 DUP4 ADD MSTORE POP POP POP JUMP JUMPDEST PUSH1 0x0 PUSH2 0x14EF PUSH2 0x14EA DUP5 PUSH2 0x149C JUMP JUMPDEST PUSH2 0x1481 JUMP JUMPDEST SWAP1 POP DUP3 DUP2 MSTORE PUSH1 0x20 DUP2 ADD DUP5 DUP5 DUP5 ADD GT ISZERO PUSH2 0x150B JUMPI PUSH2 0x150A PUSH2 0x141C JUMP JUMPDEST JUMPDEST PUSH2 0x1516 DUP5 DUP3 DUP6 PUSH2 0x14CD JUMP JUMPDEST POP SWAP4 SWAP3 POP POP POP JUMP JUMPDEST PUSH1 0x0 DUP3 PUSH1 0x1F DUP4 ADD SLT PUSH2 0x1533 JUMPI PUSH2 0x1532 PUSH2 0x1417 JUMP JUMPDEST JUMPDEST DUP2 CALLDATALOAD PUSH2 0x1543 DUP5 DUP3 PUSH1 0x20 DUP7 ADD PUSH2 0x14DC JUMP JUMPDEST SWAP2 POP POP SWAP3 SWAP2 POP POP JUMP JUMPDEST PUSH1 0x0 DUP1 PUSH1 0x40 DUP4 DUP6 SUB SLT ISZERO PUSH2 0x1563 JUMPI PUSH2 0x1562 PUSH2 0x1150 JUMP JUMPDEST JUMPDEST PUSH1 0x0 PUSH2 0x1571 DUP6 DUP3 DUP7 ADD PUSH2 0x11A3 JUMP JUMPDEST SWAP3 POP POP PUSH1 0x20 DUP4 ADD CALLDATALOAD PUSH8 0xFFFFFFFFFFFFFFFF DUP2 GT ISZERO PUSH2 0x1592 JUMPI PUSH2 0x1591 PUSH2 0x1155 JUMP JUMPDEST JUMPDEST PUSH2 0x159E DUP6 DUP3 DUP7 ADD PUSH2 0x151E JUMP JUMPDEST SWAP2 POP POP SWAP3 POP SWAP3 SWAP1 POP JUMP JUMPDEST PUSH1 0x0 DUP2 ISZERO ISZERO SWAP1 POP SWAP2 SWAP1 POP JUMP JUMPDEST PUSH2 0x15BD DUP2 PUSH2 0x15A8 JUMP JUMPDEST DUP3 MSTORE POP POP JUMP JUMPDEST PUSH1 0x0 PUSH1 0x20 DUP3 ADD SWAP1 POP PUSH2 0x15D8 PUSH1 0x0 DUP4 ADD DUP5 PUSH2 0x15B4 JUMP JUMPDEST SWAP3 SWAP2 POP POP JUMP JUMPDEST PUSH1 0x0 DUP1 PUSH1 0x0 DUP1 PUSH1 0x0 DUP1 PUSH1 0xC0 DUP8 DUP10 SUB SLT ISZERO PUSH2 0x15FB JUMPI PUSH2 0x15FA PUSH2 0x1150 JUMP JUMPDEST JUMPDEST PUSH1 0x0 DUP8 ADD CALLDATALOAD PUSH8 0xFFFFFFFFFFFFFFFF DUP2 GT ISZERO PUSH2 0x1619 JUMPI PUSH2 0x1618 PUSH2 0x1155 JUMP JUMPDEST JUMPDEST PUSH2 0x1625 DUP10 DUP3 DUP11 ADD PUSH2 0x151E JUMP JUMPDEST SWAP7 POP POP PUSH1 0x20 PUSH2 0x1636 DUP10 DUP3 DUP11 ADD PUSH2 0x11A3 JUMP JUMPDEST SWAP6 POP POP PUSH1 0x40 DUP8 ADD CALLDATALOAD PUSH8 0xFFFFFFFFFFFFFFFF DUP2 GT ISZERO PUSH2 0x1657 JUMPI PUSH2 0x1656 PUSH2 0x1155 JUMP JUMPDEST JUMPDEST PUSH2 0x1663 DUP10 DUP3 DUP11 ADD PUSH2 0x151E JUMP JUMPDEST SWAP5 POP POP PUSH1 0x60 DUP8 ADD CALLDATALOAD PUSH8 0xFFFFFFFFFFFFFFFF DUP2 GT ISZERO PUSH2 0x1684 JUMPI PUSH2 0x1683 PUSH2 0x1155 JUMP JUMPDEST JUMPDEST PUSH2 0x1690 DUP10 DUP3 DUP11 ADD PUSH2 0x151E JUMP JUMPDEST SWAP4 POP POP PUSH1 0x80 DUP8 ADD CALLDATALOAD PUSH8 0xFFFFFFFFFFFFFFFF DUP2 GT ISZERO PUSH2 0x16B1 JUMPI PUSH2 0x16B0 PUSH2 0x1155 JUMP JUMPDEST JUMPDEST PUSH2 0x16BD DUP10 DUP3 DUP11 ADD PUSH2 0x151E JUMP JUMPDEST SWAP3 POP POP PUSH1 0xA0 DUP8 ADD CALLDATALOAD PUSH8 0xFFFFFFFFFFFFFFFF DUP2 GT ISZERO PUSH2 0x16DE JUMPI PUSH2 0x16DD PUSH2 0x1155 JUMP JUMPDEST JUMPDEST PUSH2 0x16EA DUP10 DUP3 DUP11 ADD PUSH2 0x151E JUMP JUMPDEST SWAP2 POP POP SWAP3 SWAP6 POP SWAP3 SWAP6 POP SWAP3 SWAP6 JUMP JUMPDEST PUSH1 0x0 PUSH1 0xC0 DUP4 ADD PUSH1 0x0 DUP4 ADD MLOAD DUP5 DUP3 SUB PUSH1 0x0 DUP7 ADD MSTORE PUSH2 0x1714 DUP3 DUP3 PUSH2 0x1268 JUMP JUMPDEST SWAP2 POP POP PUSH1 0x20 DUP4 ADD MLOAD DUP5 DUP3 SUB PUSH1 0x20 DUP7 ADD MSTORE PUSH2 0x172E DUP3 DUP3 PUSH2 0x1268 JUMP JUMPDEST SWAP2 POP POP PUSH1 0x40 DUP4 ADD MLOAD DUP5 DUP3 SUB PUSH1 0x40 DUP7 ADD MSTORE PUSH2 0x1748 DUP3 DUP3 PUSH2 0x1268 JUMP JUMPDEST SWAP2 POP POP PUSH1 0x60 DUP4 ADD MLOAD PUSH2 0x175D PUSH1 0x60 DUP7 ADD DUP3 PUSH2 0x12AB JUMP JUMPDEST POP PUSH1 0x80 DUP4 ADD MLOAD DUP5 DUP3 SUB PUSH1 0x80 DUP7 ADD MSTORE PUSH2 0x1775 DUP3 DUP3 PUSH2 0x1268 JUMP JUMPDEST SWAP2 POP POP PUSH1 0xA0 DUP4 ADD MLOAD DUP5 DUP3 SUB PUSH1 0xA0 DUP7 ADD MSTORE PUSH2 0x178F DUP3 DUP3 PUSH2 0x1268 JUMP JUMPDEST SWAP2 POP POP DUP1 SWAP2 POP POP SWAP3 SWAP2 POP POP JUMP JUMPDEST PUSH1 0x0 PUSH1 0x20 DUP3 ADD SWAP1 POP DUP2 DUP2 SUB PUSH1 0x0 DUP4 ADD MSTORE PUSH2 0x17B6 DUP2 DUP5 PUSH2 0x16F7 JUMP JUMPDEST SWAP1 POP SWAP3 SWAP2 POP POP JUMP JUMPDEST PUSH2 0x17C7 DUP2 PUSH2 0x117A JUMP JUMPDEST DUP3 MSTORE POP POP JUMP JUMPDEST PUSH1 0x0 PUSH1 0x20 DUP3 ADD SWAP1 POP PUSH2 0x17E2 PUSH1 0x0 DUP4 ADD DUP5 PUSH2 0x17BE JUMP JUMPDEST SWAP3 SWAP2 POP POP JUMP JUMPDEST PUSH32 0x4E487B7100000000000000000000000000000000000000000000000000000000 PUSH1 0x0 MSTORE PUSH1 0x22 PUSH1 0x4 MSTORE PUSH1 0x24 PUSH1 0x0 REVERT JUMPDEST PUSH1 0x0 PUSH1 0x2 DUP3 DIV SWAP1 POP PUSH1 0x1 DUP3 AND DUP1 PUSH2 0x182F JUMPI PUSH1 0x7F DUP3 AND SWAP2 POP JUMPDEST PUSH1 0x20 DUP3 LT DUP2 SUB PUSH2 0x1842 JUMPI PUSH2 0x1841 PUSH2 0x17E8 JUMP JUMPDEST JUMPDEST POP SWAP2 SWAP1 POP JUMP JUMPDEST PUSH32 0x4E487B7100000000000000000000000000000000000000000000000000000000 PUSH1 0x0 MSTORE PUSH1 0x32 PUSH1 0x4 MSTORE PUSH1 0x24 PUSH1 0x0 REVERT JUMPDEST PUSH32 0x4E487B7100000000000000000000000000000000000000000000000000000000 PUSH1 0x0 MSTORE PUSH1 0x11 PUSH1 0x4 MSTORE PUSH1 0x24 PUSH1 0x0 REVERT JUMPDEST PUSH1 0x0 PUSH2 0x18B1 DUP3 PUSH2 0x12A1 JUMP JUMPDEST SWAP2 POP PUSH32 0xFFFFFFFFFFFFFFFFFFFFFFFFFFFFFFFFFFFFFFFFFFFFFFFFFFFFFFFFFFFFFFFF DUP3 SUB PUSH2 0x18E3 JUMPI PUSH2 0x18E2 PUSH2 0x1877 JUMP JUMPDEST JUMPDEST PUSH1 0x1 DUP3 ADD SWAP1 POP SWAP2 SWAP1 POP JUMP JUMPDEST PUSH1 0x0 DUP3 DUP3 MSTORE PUSH1 0x20 DUP3 ADD SWAP1 POP SWAP3 SWAP2 POP POP JUMP JUMPDEST PUSH32 0x4F6E6C79206F776E65722063616E20706572666F726D20746869732061637469 PUSH1 0x0 DUP3 ADD MSTORE PUSH32 0x6F6E000000000000000000000000000000000000000000000000000000000000 PUSH1 0x20 DUP3 ADD MSTORE POP JUMP JUMPDEST PUSH1 0x0 PUSH2 0x195B PUSH1 0x22 DUP4 PUSH2 0x18EE JUMP JUMPDEST SWAP2 POP PUSH2 0x1966 DUP3 PUSH2 0x18FF JUMP JUMPDEST PUSH1 0x40 DUP3 ADD SWAP1 POP SWAP2 SWAP1 POP JUMP JUMPDEST PUSH1 0x0 PUSH1 0x20 DUP3 ADD SWAP1 POP DUP2 DUP2 SUB PUSH1 0x0 DUP4 ADD MSTORE PUSH2 0x198A DUP2 PUSH2 0x194E JUMP JUMPDEST SWAP1 POP SWAP2 SWAP1 POP JUMP JUMPDEST PUSH1 0x0 DUP2 SWAP1 POP SWAP3 SWAP2 POP POP JUMP JUMPDEST PUSH1 0x0 PUSH2 0x19A7 DUP3 PUSH2 0x1211 JUMP JUMPDEST PUSH2 0x19B1 DUP2 DUP6 PUSH2 0x1991 JUMP JUMPDEST SWAP4 POP PUSH2 0x19C1 DUP2 DUP6 PUSH1 0x20 DUP7 ADD PUSH2 0x122D JUMP JUMPDEST DUP1 DUP5 ADD SWAP2 POP POP SWAP3 SWAP2 POP POP JUMP JUMPDEST PUSH1 0x0 PUSH2 0x19D9 DUP3 DUP5 PUSH2 0x199C JUMP JUMPDEST SWAP2 POP DUP2 SWAP1 POP SWAP3 SWAP2 POP POP JUMP JUMPDEST PUSH32 0x436572746966696361746520494420616C726561647920657869737473000000 PUSH1 0x0 DUP3 ADD MSTORE POP JUMP JUMPDEST PUSH1 0x0 PUSH2 0x1A1A PUSH1 0x1D DUP4 PUSH2 0x18EE JUMP JUMPDEST SWAP2 POP PUSH2 0x1A25 DUP3 PUSH2 0x19E4 JUMP JUMPDEST PUSH1 0x20 DUP3 ADD SWAP1 POP SWAP2 SWAP1 POP JUMP JUMPDEST PUSH1 0x0 PUSH1 0x20 DUP3 ADD SWAP1 POP DUP2 DUP2 SUB PUSH1 0x0 DUP4 ADD MSTORE PUSH2 0x1A49 DUP2 PUSH2 0x1A0D JUMP JUMPDEST SWAP1 POP SWAP2 SWAP1 POP JUMP JUMPDEST PUSH1 0x0 DUP2 SWAP1 POP DUP2 PUSH1 0x0 MSTORE PUSH1 0x20 PUSH1 0x0 KECCAK256 SWAP1 POP SWAP2 SWAP1 POP JUMP JUMPDEST PUSH1 0x0 PUSH1 0x20 PUSH1 0x1F DUP4 ADD DIV SWAP1 POP SWAP2 SWAP1 POP JUMP JUMPDEST PUSH1 0x0 DUP3 DUP3 SHL SWAP1 POP SWAP3 SWAP2 POP POP JUMP JUMPDEST PUSH1 0x0 PUSH1 0x8 DUP4 MUL PUSH2 0x1AB2 PUSH32 0xFFFFFFFFFFFFFFFFFFFFFFFFFFFFFFFFFFFFFFFFFFFFFFFFFFFFFFFFFFFFFFFF DUP3 PUSH2 0x1A75 JUMP JUMPDEST PUSH2 0x1ABC DUP7 DUP4 PUSH2 0x1A75 JUMP JUMPDEST SWAP6 POP DUP1 NOT DUP5 AND SWAP4 POP DUP1 DUP7 AND DUP5 OR SWAP3 POP POP POP SWAP4 SWAP3 POP POP POP JUMP JUMPDEST PUSH1 0x0 DUP2 SWAP1 POP SWAP2 SWAP1 POP JUMP JUMPDEST PUSH1 0x0 PUSH2 0x1AF9 PUSH2 0x1AF4 PUSH2 0x1AEF DUP5 PUSH2 0x12A1 JUMP JUMPDEST PUSH2 0x1AD4 JUMP JUMPDEST PUSH2 0x12A1 JUMP JUMPDEST SWAP1 POP SWAP2 SWAP1 POP JUMP JUMPDEST PUSH1 0x0 DUP2 SWAP1 POP SWAP2 SWAP1 POP JUMP JUMPDEST PUSH2 0x1B13 DUP4 PUSH2 0x1ADE JUMP JUMPDEST PUSH2 0x1B27 PUSH2 0x1B1F DUP3 PUSH2 0x1B00 JUMP JUMPDEST DUP5 DUP5 SLOAD PUSH2 0x1A82 JUMP JUMPDEST DUP3 SSTORE POP POP POP POP JUMP JUMPDEST PUSH1 0x0 SWAP1 JUMP JUMPDEST PUSH2 0x1B3C PUSH2 0x1B2F JUMP JUMPDEST PUSH2 0x1B47 DUP2 DUP5 DUP5 PUSH2 0x1B0A JUMP JUMPDEST POP POP POP JUMP JUMPDEST JUMPDEST DUP2 DUP2 LT ISZERO PUSH2 0x1B6B JUMPI PUSH2 0x1B60 PUSH1 0x0 DUP3 PUSH2 0x1B34 JUMP JUMPDEST PUSH1 0x1 DUP2 ADD SWAP1 POP PUSH2 0x1B4D JUMP JUMPDEST POP POP JUMP JUMPDEST PUSH1 0x1F DUP3 GT ISZERO PUSH2 0x1BB0 JUMPI PUSH2 0x1B81 DUP2 PUSH2 0x1A50 JUMP JUMPDEST PUSH2 0x1B8A DUP5 PUSH2 0x1A65 JUMP JUMPDEST DUP2 ADD PUSH1 0x20 DUP6 LT ISZERO PUSH2 0x1B99 JUMPI DUP2 SWAP1 POP JUMPDEST PUSH2 0x1BAD PUSH2 0x1BA5 DUP6 PUSH2 0x1A65 JUMP JUMPDEST DUP4 ADD DUP3 PUSH2 0x1B4C JUMP JUMPDEST POP POP JUMPDEST POP POP POP JUMP JUMPDEST PUSH1 0x0 DUP3 DUP3 SHR SWAP1 POP SWAP3 SWAP2 POP POP JUMP JUMPDEST PUSH1 0x0 PUSH2 0x1BD3 PUSH1 0x0 NOT DUP5 PUSH1 0x8 MUL PUSH2 0x1BB5 JUMP JUMPDEST NOT DUP1 DUP4 AND SWAP2 POP POP SWAP3 SWAP2 POP POP JUMP JUMPDEST PUSH1 0x0 PUSH2 0x1BEC DUP4 DUP4 PUSH2 0x1BC2 JUMP JUMPDEST SWAP2 POP DUP3 PUSH1 0x2 MUL DUP3 OR SWAP1 POP SWAP3 SWAP2 POP POP JUMP JUMPDEST PUSH2 0x1C05 DUP3 PUSH2 0x1211 JUMP JUMPDEST PUSH8 0xFFFFFFFFFFFFFFFF DUP2 GT ISZERO PUSH2 0x1C1E JUMPI PUSH2 0x1C1D PUSH2 0x1421 JUMP JUMPDEST JUMPDEST PUSH2 0x1C28 DUP3 SLOAD PUSH2 0x1817 JUMP JUMPDEST PUSH2 0x1C33 DUP3 DUP3 DUP6 PUSH2 0x1B6F JUMP JUMPDEST PUSH1 0x0 PUSH1 0x20 SWAP1 POP PUSH1 0x1F DUP4 GT PUSH1 0x1 DUP2 EQ PUSH2 0x1C66 JUMPI PUSH1 0x0 DUP5 ISZERO PUSH2 0x1C54 JUMPI DUP3 DUP8 ADD MLOAD SWAP1 POP JUMPDEST PUSH2 0x1C5E DUP6 DUP3 PUSH2 0x1BE0 JUMP JUMPDEST DUP7 SSTORE POP PUSH2 0x1CC6 JUMP JUMPDEST PUSH1 0x1F NOT DUP5 AND PUSH2 0x1C74 DUP7 PUSH2 0x1A50 JUMP JUMPDEST PUSH1 0x0 JUMPDEST DUP3 DUP2 LT ISZERO PUSH2 0x1C9C JUMPI DUP5 DUP10 ADD MLOAD DUP3 SSTORE PUSH1 0x1 DUP3 ADD SWAP2 POP PUSH1 0x20 DUP6 ADD SWAP5 POP PUSH1 0x20 DUP2 ADD SWAP1 POP PUSH2 0x1C77 JUMP JUMPDEST DUP7 DUP4 LT ISZERO PUSH2 0x1CB9 JUMPI DUP5 DUP10 ADD MLOAD PUSH2 0x1CB5 PUSH1 0x1F DUP10 AND DUP3 PUSH2 0x1BC2 JUMP JUMPDEST DUP4 SSTORE POP JUMPDEST PUSH1 0x1 PUSH1 0x2 DUP9 MUL ADD DUP9 SSTORE POP POP POP JUMPDEST POP POP POP POP POP POP JUMP JUMPDEST PUSH1 0x0 PUSH2 0x1CD9 DUP3 PUSH2 0x1211 JUMP JUMPDEST PUSH2 0x1CE3 DUP2 DUP6 PUSH2 0x18EE JUMP JUMPDEST SWAP4 POP PUSH2 0x1CF3 DUP2 DUP6 PUSH1 0x20 DUP7 ADD PUSH2 0x122D JUMP JUMPDEST PUSH2 0x1CFC DUP2 PUSH2 0x1257 JUMP JUMPDEST DUP5 ADD SWAP2 POP POP SWAP3 SWAP2 POP POP JUMP JUMPDEST PUSH2 0x1D10 DUP2 PUSH2 0x12A1 JUMP JUMPDEST DUP3 MSTORE POP POP JUMP JUMPDEST PUSH1 0x0 PUSH1 0x80 DUP3 ADD SWAP1 POP DUP2 DUP2 SUB PUSH1 0x0 DUP4 ADD MSTORE PUSH2 0x1D30 DUP2 DUP8 PUSH2 0x1CCE JUMP JUMPDEST SWAP1 POP DUP2 DUP2 SUB PUSH1 0x20 DUP4 ADD MSTORE PUSH2 0x1D44 DUP2 DUP7 PUSH2 0x1CCE JUMP JUMPDEST SWAP1 POP PUSH2 0x1D53 PUSH1 0x40 DUP4 ADD DUP6 PUSH2 0x1D07 JUMP JUMPDEST DUP2 DUP2 SUB PUSH1 0x60 DUP4 ADD MSTORE PUSH2 0x1D65 DUP2 DUP5 PUSH2 0x1CCE JUMP JUMPDEST SWAP1 POP SWAP6 SWAP5 POP POP POP POP POP JUMP JUMPDEST PUSH32 0x4365727469666963617465206E6F7420666F756E640000000000000000000000 PUSH1 0x0 DUP3 ADD MSTORE POP JUMP JUMPDEST PUSH1 0x0 PUSH2 0x1DA6 PUSH1 0x15 DUP4 PUSH2 0x18EE JUMP JUMPDEST SWAP2 POP PUSH2 0x1DB1 DUP3 PUSH2 0x1D70 JUMP JUMPDEST PUSH1 0x20 DUP3 ADD SWAP1 POP SWAP2 SWAP1 POP JUMP JUMPDEST PUSH1 0x0 PUSH1 0x20 DUP3 ADD SWAP1 POP DUP2 DUP2 SUB PUSH1 0x0 DUP4 ADD MSTORE PUSH2 0x1DD5 DUP2 PUSH2 0x1D99 JUMP JUMPDEST SWAP1 POP SWAP2 SWAP1 POP JUMP JUMPDEST PUSH32 0x496E76616C696420616464726573730000000000000000000000000000000000 PUSH1 0x0 DUP3 ADD MSTORE POP JUMP JUMPDEST PUSH1 0x0 PUSH2 0x1E12 PUSH1 0xF DUP4 PUSH2 0x18EE JUMP JUMPDEST SWAP2 POP PUSH2 0x1E1D DUP3 PUSH2 0x1DDC JUMP JUMPDEST PUSH1 0x20 DUP3 ADD SWAP1 POP SWAP2 SWAP1 POP JUMP JUMPDEST PUSH1 0x0 PUSH1 0x20 DUP3 ADD SWAP1 POP DUP2 DUP2 SUB PUSH1 0x0 DUP4 ADD MSTORE PUSH2 0x1E41 DUP2 PUSH2 0x1E05 JUMP JUMPDEST SWAP1 POP SWAP2 SWAP1 POP JUMP INVALID LOG2 PUSH5 0x6970667358 0x22 SLT KECCAK256 0xD2 LOG2 DUP8 0x26 PUSH18 0x1413A3011C71D17535A4B581EA03FD24DE24 0x49 SSTORE SWAP13 0xC0 PUSH31 0xB42EDE2264736F6C6343000814003300000000000000000000000000000000 "},"methodIdentifiers":{"getCertificateById(address,string)":"6bfdac5a","getUserCertificates(address)":"0385bd18","issueCertificate(string,address,string,string,string,string)":"48fe844d","owner()":"8da5cb5b","transferOwnership(address)":"f2fde38b","verifyCertificate(address,string)":"32cc82b3"}}}}}