{
  "_format": "hh-sol-artifact-1",
  "contractName": "Certification",
  "sourceName": "contracts/Certification.sol",
  "abi": [
    {
      "inputs": [],
      "stateMutability": "nonpayable",
      "type": "constructor"
    },
    {
      "anonymous": false,
      "inputs": [
        {
          "indexed": true,
          "internalType": "uint256",
          "name": "id",
          "type": "uint256"
        },
        {
          "indexed": true,
          "internalType": "address",
          "name": "holder",
          "type": "address"
        },
        {
          "indexed": false,
          "internalType": "string",
          "name": "holderName",
          "type": "string"
        },
        {
          "indexed": false,
          "internalType": "string",
          "name": "courseName",
          "type": "string"
        },
        {
          "indexed": false,
          "internalType": "uint256",
          "name": "issueDate",
          "type": "uint256"
        },
        {
          "indexed": false,
          "internalType": "string",
          "name": "issuer",
          "type": "string"
        }
      ],
      "name": "CertificateIssued",
      "type": "event"
    },
    {
      "inputs": [
        {
          "internalType": "address",
          "name": "_user",
          "type": "address"
        },
        {
          "internalType": "uint256",
          "name": "_certificateId",
          "type": "uint256"
        }
      ],
      "name": "getCertificateById",
      "outputs": [
        {
          "components": [
            {
              "internalType": "uint256",
              "name": "id",
              "type": "uint256"
            },
            {
              "internalType": "string",
              "name": "holderName",
              "type": "string"
            },
            {
              "internalType": "string",
              "name": "courseName",
              "type": "string"
            },
            {
              "internalType": "uint256",
              "name": "issueDate",
              "type": "uint256"
            },
            {
              "internalType": "string",
              "name": "issuer",
              "type": "string"
            },
            {
              "internalType": "string",
              "name": "credentialUrl",
              "type": "string"
            }
          ],
          "internalType": "struct Certification.Certificate",
          "name": "",
          "type": "tuple"
        }
      ],
      "stateMutability": "view",
      "type": "function"
    },
    {
      "inputs": [
        {
          "internalType": "address",
          "name": "_user",
          "type": "address"
        }
      ],
      "name": "getUserCertificates",
      "outputs": [
        {
          "components": [
            {
              "internalType": "uint256",
              "name": "id",
              "type": "uint256"
            },
            {
              "internalType": "string",
              "name": "holderName",
              "type": "string"
            },
            {
              "internalType": "string",
              "name": "courseName",
              "type": "string"
            },
            {
              "internalType": "uint256",
              "name": "issueDate",
              "type": "uint256"
            },
            {
              "internalType": "string",
              "name": "issuer",
              "type": "string"
            },
            {
              "internalType": "string",
              "name": "credentialUrl",
              "type": "string"
            }
          ],
          "internalType": "struct Certification.Certificate[]",
          "name": "",
          "type": "tuple[]"
        }
      ],
      "stateMutability": "view",
      "type": "function"
    },
    {
      "inputs": [
        {
          "internalType": "address",
          "name": "_holder",
          "type": "address"
        },
        {
          "internalType": "string",
          "name": "_holderName",
          "type": "string"
        },
        {
          "internalType": "string",
          "name": "_courseName",
          "type": "string"
        },
        {
          "internalType": "string",
          "name": "_issuer",
          "type": "string"
        },
        {
          "internalType": "string",
          "name": "_credentialUrl",
          "type": "string"
        }
      ],
      "name": "issueCertificate",
      "outputs": [],
      "stateMutability": "nonpayable",
      "type": "function"
    },
    {
      "inputs": [],
      "name": "owner",
      "outputs": [
        {
          "internalType": "address",
          "name": "",
          "type": "address"
        }
      ],
      "stateMutability": "view",
      "type": "function"
    },
    {
      "inputs": [
        {
          "internalType": "address",
          "name": "_newOwner",
          "type": "address"
        }
      ],
      "name": "transferOwnership",
      "outputs": [],
      "stateMutability": "nonpayable",
      "type": "function"
    },
    {
      "inputs": [
        {
          "internalType": "uint256",
          "name": "_certificateId",
          "type": "uint256"
        }
      ],
      "name": "verifyCertificate",
      "outputs": [
        {
          "internalType": "bool",
          "name": "",
          "type": "bool"
        }
      ],
      "stateMutability": "view",
      "type": "function"
    }
  ],
  "bytecode": "0x608060405234801561001057600080fd5b50336000806101000a81548173ffffffffffffffffffffffffffffffffffffffff021916908373ffffffffffffffffffffffffffffffffffffffff160217905550611a38806100606000396000f3fe608060405234801561001057600080fd5b50600436106100625760003560e01c80630385bd18146100675780631692a9421461009757806321189f41146100c75780638da5cb5b146100f7578063e9dd92ee14610115578063f2fde38b14610131575b600080fd5b610081600480360381019061007c9190610cd9565b61014d565b60405161008e9190610f0f565b60405180910390f35b6100b160048036038101906100ac9190610f5d565b610447565b6040516100be9190610fa5565b60405180910390f35b6100e160048036038101906100dc9190610fc0565b610471565b6040516100ee919061109e565b60405180910390f35b6100ff610818565b60405161010c91906110cf565b60405180910390f35b61012f600480360381019061012a919061121f565b61083c565b005b61014b60048036038101906101469190610cd9565b610af1565b005b6060600160008373ffffffffffffffffffffffffffffffffffffffff1673ffffffffffffffffffffffffffffffffffffffff168152602001908152602001600020805480602002602001604051908101604052809291908181526020016000905b8282101561043c57838290600052602060002090600602016040518060c0016040529081600082015481526020016001820180546101eb90611339565b80601f016020809104026020016040519081016040528092919081815260200182805461021790611339565b80156102645780601f1061023957610100808354040283529160200191610264565b820191906000526020600020905b81548152906001019060200180831161024757829003601f168201915b5050505050815260200160028201805461027d90611339565b80601f01602080910402602001604051908101604052809291908181526020018280546102a990611339565b80156102f65780601f106102cb576101008083540402835291602001916102f6565b820191906000526020600020905b8154815290600101906020018083116102d957829003601f168201915b505050505081526020016003820154815260200160048201805461031990611339565b80601f016020809104026020016040519081016040528092919081815260200182805461034590611339565b80156103925780601f1061036757610100808354040283529160200191610392565b820191906000526020600020905b81548152906001019060200180831161037557829003601f168201915b505050505081526020016005820180546103ab90611339565b80601f01602080910402602001604051908101604052809291908181526020018280546103d790611339565b80156104245780601f106103f957610100808354040283529160200191610424565b820191906000526020600020905b81548152906001019060200180831161040757829003601f168201915b505050505081525050815260200190600101906101ae565b505050509050919050565b60006002600083815260200190815260200160002060009054906101000a900460ff169050919050565b610479610c31565b6000600160008573ffffffffffffffffffffffffffffffffffffffff1673ffffffffffffffffffffffffffffffffffffffff168152602001908152602001600020805480602002602001604051908101604052809291908181526020016000905b8282101561076857838290600052602060002090600602016040518060c00160405290816000820154815260200160018201805461051790611339565b80601f016020809104026020016040519081016040528092919081815260200182805461054390611339565b80156105905780601f1061056557610100808354040283529160200191610590565b820191906000526020600020905b81548152906001019060200180831161057357829003601f168201915b505050505081526020016002820180546105a990611339565b80601f01602080910402602001604051908101604052809291908181526020018280546105d590611339565b80156106225780601f106105f757610100808354040283529160200191610622565b820191906000526020600020905b81548152906001019060200180831161060557829003601f168201915b505050505081526020016003820154815260200160048201805461064590611339565b80601f016020809104026020016040519081016040528092919081815260200182805461067190611339565b80156106be5780601f10610693576101008083540402835291602001916106be565b820191906000526020600020905b8154815290600101906020018083116106a157829003601f168201915b505050505081526020016005820180546106d790611339565b80601f016020809104026020016040519081016040528092919081815260200182805461070390611339565b80156107505780601f1061072557610100808354040283529160200191610750565b820191906000526020600020905b81548152906001019060200180831161073357829003601f168201915b505050505081525050815260200190600101906104da565b50505050905060005b81518110156107d6578382828151811061078e5761078d61136a565b5b602002602001015160000151036107c3578181815181106107b2576107b161136a565b5b602002602001015192505050610812565b80806107ce906113c8565b915050610771565b506040517f08c379a00000000000000000000000000000000000000000000000000000000081526004016108099061146d565b60405180910390fd5b92915050565b60008054906101000a900473ffffffffffffffffffffffffffffffffffffffff1681565b60008054906101000a900473ffffffffffffffffffffffffffffffffffffffff1673ffffffffffffffffffffffffffffffffffffffff163373ffffffffffffffffffffffffffffffffffffffff16146108ca576040517f08c379a00000000000000000000000000000000000000000000000000000000081526004016108c1906114ff565b60405180910390fd5b6000858585426040516020016108e394939291906115c4565b6040516020818303038152906040528051906020012060001c90506002600082815260200190815260200160002060009054906101000a900460ff161561095f576040517f08c379a000000000000000000000000000000000000000000000000000000000815260040161095690611656565b60405180910390fd5b60006040518060c00160405280838152602001878152602001868152602001428152602001858152602001848152509050600160008873ffffffffffffffffffffffffffffffffffffffff1673ffffffffffffffffffffffffffffffffffffffff168152602001908152602001600020819080600181540180825580915050600190039060005260206000209060060201600090919091909150600082015181600001556020820151816001019081610a189190611822565b506040820151816002019081610a2e9190611822565b50606082015181600301556080820151816004019081610a4e9190611822565b5060a0820151816005019081610a649190611822565b50505060016002600084815260200190815260200160002060006101000a81548160ff0219169083151502179055508673ffffffffffffffffffffffffffffffffffffffff16827f55771991ffa371c9dd2db01cda7cd1f387b5c4799385b30ac842da0ba782451888884289604051610ae0949392919061193c565b60405180910390a350505050505050565b60008054906101000a900473ffffffffffffffffffffffffffffffffffffffff1673ffffffffffffffffffffffffffffffffffffffff163373ffffffffffffffffffffffffffffffffffffffff1614610b7f576040517f08c379a0000000000000000000000000000000000000000000000000000000008152600401610b76906114ff565b60405180910390fd5b600073ffffffffffffffffffffffffffffffffffffffff168173ffffffffffffffffffffffffffffffffffffffff1603610bee576040517f08c379a0000000000000000000000000000000000000000000000000000000008152600401610be5906119e2565b60405180910390fd5b806000806101000a81548173ffffffffffffffffffffffffffffffffffffffff021916908373ffffffffffffffffffffffffffffffffffffffff16021790555050565b6040518060c001604052806000815260200160608152602001606081526020016000815260200160608152602001606081525090565b6000604051905090565b600080fd5b600080fd5b600073ffffffffffffffffffffffffffffffffffffffff82169050919050565b6000610ca682610c7b565b9050919050565b610cb681610c9b565b8114610cc157600080fd5b50565b600081359050610cd381610cad565b92915050565b600060208284031215610cef57610cee610c71565b5b6000610cfd84828501610cc4565b91505092915050565b600081519050919050565b600082825260208201905092915050565b6000819050602082019050919050565b6000819050919050565b610d4581610d32565b82525050565b600081519050919050565b600082825260208201905092915050565b60005b83811015610d85578082015181840152602081019050610d6a565b60008484015250505050565b6000601f19601f8301169050919050565b6000610dad82610d4b565b610db78185610d56565b9350610dc7818560208601610d67565b610dd081610d91565b840191505092915050565b600060c083016000830151610df36000860182610d3c565b5060208301518482036020860152610e0b8282610da2565b91505060408301518482036040860152610e258282610da2565b9150506060830151610e3a6060860182610d3c565b5060808301518482036080860152610e528282610da2565b91505060a083015184820360a0860152610e6c8282610da2565b9150508091505092915050565b6000610e858383610ddb565b905092915050565b6000602082019050919050565b6000610ea582610d06565b610eaf8185610d11565b935083602082028501610ec185610d22565b8060005b85811015610efd5784840389528151610ede8582610e79565b9450610ee983610e8d565b925060208a01995050600181019050610ec5565b50829750879550505050505092915050565b60006020820190508181036000830152610f298184610e9a565b905092915050565b610f3a81610d32565b8114610f4557600080fd5b50565b600081359050610f5781610f31565b92915050565b600060208284031215610f7357610f72610c71565b5b6000610f8184828501610f48565b91505092915050565b60008115159050919050565b610f9f81610f8a565b82525050565b6000602082019050610fba6000830184610f96565b92915050565b60008060408385031215610fd757610fd6610c71565b5b6000610fe585828601610cc4565b9250506020610ff685828601610f48565b9150509250929050565b600060c0830160008301516110186000860182610d3c565b50602083015184820360208601526110308282610da2565b9150506040830151848203604086015261104a8282610da2565b915050606083015161105f6060860182610d3c565b50608083015184820360808601526110778282610da2565b91505060a083015184820360a08601526110918282610da2565b9150508091505092915050565b600060208201905081810360008301526110b88184611000565b905092915050565b6110c981610c9b565b82525050565b60006020820190506110e460008301846110c0565b92915050565b600080fd5b600080fd5b7f4e487b7100000000000000000000000000000000000000000000000000000000600052604160045260246000fd5b61112c82610d91565b810181811067ffffffffffffffff8211171561114b5761114a6110f4565b5b80604052505050565b600061115e610c67565b905061116a8282611123565b919050565b600067ffffffffffffffff82111561118a576111896110f4565b5b61119382610d91565b9050602081019050919050565b82818337600083830152505050565b60006111c26111bd8461116f565b611154565b9050828152602081018484840111156111de576111dd6110ef565b5b6111e98482856111a0565b509392505050565b600082601f830112611206576112056110ea565b5b81356112168482602086016111af565b91505092915050565b600080600080600060a0868803121561123b5761123a610c71565b5b600061124988828901610cc4565b955050602086013567ffffffffffffffff81111561126a57611269610c76565b5b611276888289016111f1565b945050604086013567ffffffffffffffff81111561129757611296610c76565b5b6112a3888289016111f1565b935050606086013567ffffffffffffffff8111156112c4576112c3610c76565b5b6112d0888289016111f1565b925050608086013567ffffffffffffffff8111156112f1576112f0610c76565b5b6112fd888289016111f1565b9150509295509295909350565b7f4e487b7100000000000000000000000000000000000000000000000000000000600052602260045260246000fd5b6000600282049050600182168061135157607f821691505b6020821081036113645761136361130a565b5b50919050565b7f4e487b7100000000000000000000000000000000000000000000000000000000600052603260045260246000fd5b7f4e487b7100000000000000000000000000000000000000000000000000000000600052601160045260246000fd5b60006113d382610d32565b91507fffffffffffffffffffffffffffffffffffffffffffffffffffffffffffffffff820361140557611404611399565b5b600182019050919050565b600082825260208201905092915050565b7f4365727469666963617465206e6f7420666f756e640000000000000000000000600082015250565b6000611457601583611410565b915061146282611421565b602082019050919050565b600060208201905081810360008301526114868161144a565b9050919050565b7f4f6e6c79206f776e65722063616e20706572666f726d2074686973206163746960008201527f6f6e000000000000000000000000000000000000000000000000000000000000602082015250565b60006114e9602283611410565b91506114f48261148d565b604082019050919050565b60006020820190508181036000830152611518816114dc565b9050919050565b60008160601b9050919050565b60006115378261151f565b9050919050565b60006115498261152c565b9050919050565b61156161155c82610c9b565b61153e565b82525050565b600081905092915050565b600061157d82610d4b565b6115878185611567565b9350611597818560208601610d67565b80840191505092915050565b6000819050919050565b6115be6115b982610d32565b6115a3565b82525050565b60006115d08287611550565b6014820191506115e08286611572565b91506115ec8285611572565b91506115f882846115ad565b60208201915081905095945050505050565b7f436572746966696361746520494420616c726561647920657869737473000000600082015250565b6000611640601d83611410565b915061164b8261160a565b602082019050919050565b6000602082019050818103600083015261166f81611633565b9050919050565b60008190508160005260206000209050919050565b60006020601f8301049050919050565b600082821b905092915050565b6000600883026116d87fffffffffffffffffffffffffffffffffffffffffffffffffffffffffffffffff8261169b565b6116e2868361169b565b95508019841693508086168417925050509392505050565b6000819050919050565b600061171f61171a61171584610d32565b6116fa565b610d32565b9050919050565b6000819050919050565b61173983611704565b61174d61174582611726565b8484546116a8565b825550505050565b600090565b611762611755565b61176d818484611730565b505050565b5b818110156117915761178660008261175a565b600181019050611773565b5050565b601f8211156117d6576117a781611676565b6117b08461168b565b810160208510156117bf578190505b6117d36117cb8561168b565b830182611772565b50505b505050565b600082821c905092915050565b60006117f9600019846008026117db565b1980831691505092915050565b600061181283836117e8565b9150826002028217905092915050565b61182b82610d4b565b67ffffffffffffffff811115611844576118436110f4565b5b61184e8254611339565b611859828285611795565b600060209050601f83116001811461188c576000841561187a578287015190505b6118848582611806565b8655506118ec565b601f19841661189a86611676565b60005b828110156118c25784890151825560018201915060208501945060208101905061189d565b868310156118df57848901516118db601f8916826117e8565b8355505b6001600288020188555050505b505050505050565b60006118ff82610d4b565b6119098185611410565b9350611919818560208601610d67565b61192281610d91565b840191505092915050565b61193681610d32565b82525050565b6000608082019050818103600083015261195681876118f4565b9050818103602083015261196a81866118f4565b9050611979604083018561192d565b818103606083015261198b81846118f4565b905095945050505050565b7f496e76616c696420616464726573730000000000000000000000000000000000600082015250565b60006119cc600f83611410565b91506119d782611996565b602082019050919050565b600060208201905081810360008301526119fb816119bf565b905091905056fea2646970667358221220dde1f3655645f8a8e199733e7f3de79b5aceca027577c3ea098a7211d1fea97864736f6c63430008140033",
  "linkReferences": {},
  "deployedLinkReferences": {}
}