{
  "_format": "hh-sol-artifact-1",
  "contractName": "Certification",
  "sourceName": "contracts/Certification.sol",
  "abi": [
    {
      "inputs": [],
      "stateMutability": "nonpayable",
      "type": "constructor"
    },
    {
      "anonymous": false,
      "inputs": [
        {
          "indexed": true,
          "internalType": "string",
          "name": "id",
          "type": "string"
        },
        {
          "indexed": true,
          "internalType": "address",
          "name": "holder",
          "type": "address"
        },
        {
          "indexed": false,
          "internalType": "string",
          "name": "holderName",
          "type": "string"
        },
        {
          "indexed": false,
          "internalType": "string",
          "name": "courseName",
          "type": "string"
        },
        {
          "indexed": false,
          "internalType": "uint256",
          "name": "issueDate",
          "type": "uint256"
        },
        {
          "indexed": false,
          "internalType": "string",
          "name": "issuer",
          "type": "string"
        }
      ],
      "name": "CertificateIssued",
      "type": "event"
    },
    {
      "inputs": [
        {
          "internalType": "address",
          "name": "_user",
          "type": "address"
        },
        {
          "internalType": "string",
          "name": "_certificateId",
          "type": "string"
        }
      ],
      "name": "getCertificateById",
      "outputs": [
        {
          "components": [
            {
              "internalType": "string",
              "name": "id",
              "type": "string"
            },
            {
              "internalType": "string",
              "name": "holderName",
              "type": "string"
            },
            {
              "internalType": "string",
              "name": "courseName",
              "type": "string"
            },
            {
              "internalType": "uint256",
              "name": "issueDate",
              "type": "uint256"
            },
            {
              "internalType": "string",
              "name": "issuer",
              "type": "string"
            },
            {
              "internalType": "string",
              "name": "ipfsId",
              "type": "string"
            }
          ],
          "internalType": "struct Certification.Certificate",
          "name": "",
          "type": "tuple"
        }
      ],
      "stateMutability": "view",
      "type": "function"
    },
    {
      "inputs": [
        {
          "internalType": "address",
          "name": "_user",
          "type": "address"
        }
      ],
      "name": "getUserCertificates",
      "outputs": [
        {
          "components": [
            {
              "internalType": "string",
              "name": "id",
              "type": "string"
            },
            {
              "internalType": "string",
              "name": "holderName",
              "type": "string"
            },
            {
              "internalType": "string",
              "name": "courseName",
              "type": "string"
            },
            {
              "internalType": "uint256",
              "name": "issueDate",
              "type": "uint256"
            },
            {
              "internalType": "string",
              "name": "issuer",
              "type": "string"
            },
            {
              "internalType": "string",
              "name": "ipfsId",
              "type": "string"
            }
          ],
          "internalType": "struct Certification.Certificate[]",
          "name": "",
          "type": "tuple[]"
        }
      ],
      "stateMutability": "view",
      "type": "function"
    },
    {
      "inputs": [
        {
          "internalType": "string",
          "name": "_certificateId",
          "type": "string"
        },
        {
          "internalType": "address",
          "name": "_holder",
          "type": "address"
        },
        {
          "internalType": "string",
          "name": "_holderName",
          "type": "string"
        },
        {
          "internalType": "string",
          "name": "_courseName",
          "type": "string"
        },
        {
          "internalType": "string",
          "name": "_issuer",
          "type": "string"
        },
        {
          "internalType": "string",
          "name": "_ipfsId",
          "type": "string"
        }
      ],
      "name": "issueCertificate",
      "outputs": [],
      "stateMutability": "nonpayable",
      "type": "function"
    },
    {
      "inputs": [],
      "name": "owner",
      "outputs": [
        {
          "internalType": "address",
          "name": "",
          "type": "address"
        }
      ],
      "stateMutability": "view",
      "type": "function"
    },
    {
      "inputs": [
        {
          "internalType": "address",
          "name": "_newOwner",
          "type": "address"
        }
      ],
      "name": "transferOwnership",
      "outputs": [],
      "stateMutability": "nonpayable",
      "type": "function"
    },
    {
      "inputs": [
        {
          "internalType": "address",
          "name": "_user",
          "type": "address"
        },
        {
          "internalType": "string",
          "name": "_certificateId",
          "type": "string"
        }
      ],
      "name": "verifyCertificate",
      "outputs": [
        {
          "internalType": "bool",
          "name": "",
          "type": "bool"
        }
      ],
      "stateMutability": "view",
      "type": "function"
    }
  ],
  "bytecode": "0x608060405234801561001057600080fd5b50336000806101000a81548173ffffffffffffffffffffffffffffffffffffffff021916908373ffffffffffffffffffffffffffffffffffffffff160217905550611e7e806100606000396000f3fe608060405234801561001057600080fd5b50600436106100625760003560e01c80630385bd181461006757806332cc82b31461009757806348fe844d146100c75780636bfdac5a146100e35780638da5cb5b14610113578063f2fde38b14610131575b600080fd5b610081600480360381019061007c91906111b8565b61014d565b60405161008e91906113f5565b60405180910390f35b6100b160048036038101906100ac919061154c565b6104cf565b6040516100be91906115c3565b60405180910390f35b6100e160048036038101906100dc91906115de565b6108b7565b005b6100fd60048036038101906100f8919061154c565b610b6f565b60405161010a919061179c565b60405180910390f35b61011b610fac565b60405161012891906117cd565b60405180910390f35b61014b600480360381019061014691906111b8565b610fd0565b005b6060600160008373ffffffffffffffffffffffffffffffffffffffff1673ffffffffffffffffffffffffffffffffffffffff168152602001908152602001600020805480602002602001604051908101604052809291908181526020016000905b828210156104c457838290600052602060002090600602016040518060c00160405290816000820180546101e190611817565b80601f016020809104026020016040519081016040528092919081815260200182805461020d90611817565b801561025a5780601f1061022f5761010080835404028352916020019161025a565b820191906000526020600020905b81548152906001019060200180831161023d57829003601f168201915b5050505050815260200160018201805461027390611817565b80601f016020809104026020016040519081016040528092919081815260200182805461029f90611817565b80156102ec5780601f106102c1576101008083540402835291602001916102ec565b820191906000526020600020905b8154815290600101906020018083116102cf57829003601f168201915b5050505050815260200160028201805461030590611817565b80601f016020809104026020016040519081016040528092919081815260200182805461033190611817565b801561037e5780601f106103535761010080835404028352916020019161037e565b820191906000526020600020905b81548152906001019060200180831161036157829003601f168201915b50505050508152602001600382015481526020016004820180546103a190611817565b80601f01602080910402602001604051908101604052809291908181526020018280546103cd90611817565b801561041a5780601f106103ef5761010080835404028352916020019161041a565b820191906000526020600020905b8154815290600101906020018083116103fd57829003601f168201915b5050505050815260200160058201805461043390611817565b80601f016020809104026020016040519081016040528092919081815260200182805461045f90611817565b80156104ac5780601f10610481576101008083540402835291602001916104ac565b820191906000526020600020905b81548152906001019060200180831161048f57829003601f168201915b505050505081525050815260200190600101906101ae565b505050509050919050565b600080600160008573ffffffffffffffffffffffffffffffffffffffff1673ffffffffffffffffffffffffffffffffffffffff168152602001908152602001600020805480602002602001604051908101604052809291908181526020016000905b8282101561084757838290600052602060002090600602016040518060c001604052908160008201805461056490611817565b80601f016020809104026020016040519081016040528092919081815260200182805461059090611817565b80156105dd5780601f106105b2576101008083540402835291602001916105dd565b820191906000526020600020905b8154815290600101906020018083116105c057829003601f168201915b505050505081526020016001820180546105f690611817565b80601f016020809104026020016040519081016040528092919081815260200182805461062290611817565b801561066f5780601f106106445761010080835404028352916020019161066f565b820191906000526020600020905b81548152906001019060200180831161065257829003601f168201915b5050505050815260200160028201805461068890611817565b80601f01602080910402602001604051908101604052809291908181526020018280546106b490611817565b80156107015780601f106106d657610100808354040283529160200191610701565b820191906000526020600020905b8154815290600101906020018083116106e457829003601f168201915b505050505081526020016003820154815260200160048201805461072490611817565b80601f016020809104026020016040519081016040528092919081815260200182805461075090611817565b801561079d5780601f106107725761010080835404028352916020019161079d565b820191906000526020600020905b81548152906001019060200180831161078057829003601f168201915b505050505081526020016005820180546107b690611817565b80601f01602080910402602001604051908101604052809291908181526020018280546107e290611817565b801561082f5780601f106108045761010080835404028352916020019161082f565b820191906000526020600020905b81548152906001019060200180831161081257829003601f168201915b50505050508152505081526020019060010190610531565b50505050905060005b81518110156108aa57838051906020012082828151811061087457610873611848565b5b6020026020010151600001518051906020012003610897576001925050506108b1565b80806108a2906118a6565b915050610850565b5060009150505b92915050565b60008054906101000a900473ffffffffffffffffffffffffffffffffffffffff1673ffffffffffffffffffffffffffffffffffffffff163373ffffffffffffffffffffffffffffffffffffffff1614610945576040517f08c379a000000000000000000000000000000000000000000000000000000000815260040161093c90611971565b60405180910390fd5b60028660405161095591906119cd565b908152602001604051809103902060009054906101000a900460ff16156109b1576040517f08c379a00000000000000000000000000000000000000000000000000000000081526004016109a890611a30565b60405180910390fd5b60006040518060c00160405280888152602001868152602001858152602001428152602001848152602001838152509050600160008773ffffffffffffffffffffffffffffffffffffffff1673ffffffffffffffffffffffffffffffffffffffff1681526020019081526020016000208190806001815401808255809150506001900390600052602060002090600602016000909190919091506000820151816000019081610a609190611bfc565b506020820151816001019081610a769190611bfc565b506040820151816002019081610a8c9190611bfc565b50606082015181600301556080820151816004019081610aac9190611bfc565b5060a0820151816005019081610ac29190611bfc565b5050506001600288604051610ad791906119cd565b908152602001604051809103902060006101000a81548160ff0219169083151502179055508573ffffffffffffffffffffffffffffffffffffffff1687604051610b2191906119cd565b60405180910390207f18b25641824764ef57536418832ec3b07baf900cd43ed703082a392163082e4f87874288604051610b5e9493929190611d16565b60405180910390a350505050505050565b610b77611110565b6000600160008573ffffffffffffffffffffffffffffffffffffffff1673ffffffffffffffffffffffffffffffffffffffff168152602001908152602001600020805480602002602001604051908101604052809291908181526020016000905b82821015610eee57838290600052602060002090600602016040518060c0016040529081600082018054610c0b90611817565b80601f0160208091040260200160405190810160405280929190818152602001828054610c3790611817565b8015610c845780601f10610c5957610100808354040283529160200191610c84565b820191906000526020600020905b815481529060010190602001808311610c6757829003601f168201915b50505050508152602001600182018054610c9d90611817565b80601f0160208091040260200160405190810160405280929190818152602001828054610cc990611817565b8015610d165780601f10610ceb57610100808354040283529160200191610d16565b820191906000526020600020905b815481529060010190602001808311610cf957829003601f168201915b50505050508152602001600282018054610d2f90611817565b80601f0160208091040260200160405190810160405280929190818152602001828054610d5b90611817565b8015610da85780601f10610d7d57610100808354040283529160200191610da8565b820191906000526020600020905b815481529060010190602001808311610d8b57829003601f168201915b5050505050815260200160038201548152602001600482018054610dcb90611817565b80601f0160208091040260200160405190810160405280929190818152602001828054610df790611817565b8015610e445780601f10610e1957610100808354040283529160200191610e44565b820191906000526020600020905b815481529060010190602001808311610e2757829003601f168201915b50505050508152602001600582018054610e5d90611817565b80601f0160208091040260200160405190810160405280929190818152602001828054610e8990611817565b8015610ed65780601f10610eab57610100808354040283529160200191610ed6565b820191906000526020600020905b815481529060010190602001808311610eb957829003601f168201915b50505050508152505081526020019060010190610bd8565b50505050905060005b8151811015610f6a578380519060200120828281518110610f1b57610f1a611848565b5b6020026020010151600001518051906020012003610f5757818181518110610f4657610f45611848565b5b602002602001015192505050610fa6565b8080610f62906118a6565b915050610ef7565b506040517f08c379a0000000000000000000000000000000000000000000000000000000008152600401610f9d90611dbc565b60405180910390fd5b92915050565b60008054906101000a900473ffffffffffffffffffffffffffffffffffffffff1681565b60008054906101000a900473ffffffffffffffffffffffffffffffffffffffff1673ffffffffffffffffffffffffffffffffffffffff163373ffffffffffffffffffffffffffffffffffffffff161461105e576040517f08c379a000000000000000000000000000000000000000000000000000000000815260040161105590611971565b60405180910390fd5b600073ffffffffffffffffffffffffffffffffffffffff168173ffffffffffffffffffffffffffffffffffffffff16036110cd576040517f08c379a00000000000000000000000000000000000000000000000000000000081526004016110c490611e28565b60405180910390fd5b806000806101000a81548173ffffffffffffffffffffffffffffffffffffffff021916908373ffffffffffffffffffffffffffffffffffffffff16021790555050565b6040518060c001604052806060815260200160608152602001606081526020016000815260200160608152602001606081525090565b6000604051905090565b600080fd5b600080fd5b600073ffffffffffffffffffffffffffffffffffffffff82169050919050565b60006111858261115a565b9050919050565b6111958161117a565b81146111a057600080fd5b50565b6000813590506111b28161118c565b92915050565b6000602082840312156111ce576111cd611150565b5b60006111dc848285016111a3565b91505092915050565b600081519050919050565b600082825260208201905092915050565b6000819050602082019050919050565b600081519050919050565b600082825260208201905092915050565b60005b8381101561124b578082015181840152602081019050611230565b60008484015250505050565b6000601f19601f8301169050919050565b600061127382611211565b61127d818561121c565b935061128d81856020860161122d565b61129681611257565b840191505092915050565b6000819050919050565b6112b4816112a1565b82525050565b600060c08301600083015184820360008601526112d78282611268565b915050602083015184820360208601526112f18282611268565b9150506040830151848203604086015261130b8282611268565b915050606083015161132060608601826112ab565b50608083015184820360808601526113388282611268565b91505060a083015184820360a08601526113528282611268565b9150508091505092915050565b600061136b83836112ba565b905092915050565b6000602082019050919050565b600061138b826111e5565b61139581856111f0565b9350836020820285016113a785611201565b8060005b858110156113e357848403895281516113c4858261135f565b94506113cf83611373565b925060208a019950506001810190506113ab565b50829750879550505050505092915050565b6000602082019050818103600083015261140f8184611380565b905092915050565b600080fd5b600080fd5b7f4e487b7100000000000000000000000000000000000000000000000000000000600052604160045260246000fd5b61145982611257565b810181811067ffffffffffffffff8211171561147857611477611421565b5b80604052505050565b600061148b611146565b90506114978282611450565b919050565b600067ffffffffffffffff8211156114b7576114b6611421565b5b6114c082611257565b9050602081019050919050565b82818337600083830152505050565b60006114ef6114ea8461149c565b611481565b90508281526020810184848401111561150b5761150a61141c565b5b6115168482856114cd565b509392505050565b600082601f83011261153357611532611417565b5b81356115438482602086016114dc565b91505092915050565b6000806040838503121561156357611562611150565b5b6000611571858286016111a3565b925050602083013567ffffffffffffffff81111561159257611591611155565b5b61159e8582860161151e565b9150509250929050565b60008115159050919050565b6115bd816115a8565b82525050565b60006020820190506115d860008301846115b4565b92915050565b60008060008060008060c087890312156115fb576115fa611150565b5b600087013567ffffffffffffffff81111561161957611618611155565b5b61162589828a0161151e565b965050602061163689828a016111a3565b955050604087013567ffffffffffffffff81111561165757611656611155565b5b61166389828a0161151e565b945050606087013567ffffffffffffffff81111561168457611683611155565b5b61169089828a0161151e565b935050608087013567ffffffffffffffff8111156116b1576116b0611155565b5b6116bd89828a0161151e565b92505060a087013567ffffffffffffffff8111156116de576116dd611155565b5b6116ea89828a0161151e565b9150509295509295509295565b600060c08301600083015184820360008601526117148282611268565b9150506020830151848203602086015261172e8282611268565b915050604083015184820360408601526117488282611268565b915050606083015161175d60608601826112ab565b50608083015184820360808601526117758282611268565b91505060a083015184820360a086015261178f8282611268565b9150508091505092915050565b600060208201905081810360008301526117b681846116f7565b905092915050565b6117c78161117a565b82525050565b60006020820190506117e260008301846117be565b92915050565b7f4e487b7100000000000000000000000000000000000000000000000000000000600052602260045260246000fd5b6000600282049050600182168061182f57607f821691505b602082108103611842576118416117e8565b5b50919050565b7f4e487b7100000000000000000000000000000000000000000000000000000000600052603260045260246000fd5b7f4e487b7100000000000000000000000000000000000000000000000000000000600052601160045260246000fd5b60006118b1826112a1565b91507fffffffffffffffffffffffffffffffffffffffffffffffffffffffffffffffff82036118e3576118e2611877565b5b600182019050919050565b600082825260208201905092915050565b7f4f6e6c79206f776e65722063616e20706572666f726d2074686973206163746960008201527f6f6e000000000000000000000000000000000000000000000000000000000000602082015250565b600061195b6022836118ee565b9150611966826118ff565b604082019050919050565b6000602082019050818103600083015261198a8161194e565b9050919050565b600081905092915050565b60006119a782611211565b6119b18185611991565b93506119c181856020860161122d565b80840191505092915050565b60006119d9828461199c565b915081905092915050565b7f436572746966696361746520494420616c726561647920657869737473000000600082015250565b6000611a1a601d836118ee565b9150611a25826119e4565b602082019050919050565b60006020820190508181036000830152611a4981611a0d565b9050919050565b60008190508160005260206000209050919050565b60006020601f8301049050919050565b600082821b905092915050565b600060088302611ab27fffffffffffffffffffffffffffffffffffffffffffffffffffffffffffffffff82611a75565b611abc8683611a75565b95508019841693508086168417925050509392505050565b6000819050919050565b6000611af9611af4611aef846112a1565b611ad4565b6112a1565b9050919050565b6000819050919050565b611b1383611ade565b611b27611b1f82611b00565b848454611a82565b825550505050565b600090565b611b3c611b2f565b611b47818484611b0a565b505050565b5b81811015611b6b57611b60600082611b34565b600181019050611b4d565b5050565b601f821115611bb057611b8181611a50565b611b8a84611a65565b81016020851015611b99578190505b611bad611ba585611a65565b830182611b4c565b50505b505050565b600082821c905092915050565b6000611bd360001984600802611bb5565b1980831691505092915050565b6000611bec8383611bc2565b9150826002028217905092915050565b611c0582611211565b67ffffffffffffffff811115611c1e57611c1d611421565b5b611c288254611817565b611c33828285611b6f565b600060209050601f831160018114611c665760008415611c54578287015190505b611c5e8582611be0565b865550611cc6565b601f198416611c7486611a50565b60005b82811015611c9c57848901518255600182019150602085019450602081019050611c77565b86831015611cb95784890151611cb5601f891682611bc2565b8355505b6001600288020188555050505b505050505050565b6000611cd982611211565b611ce381856118ee565b9350611cf381856020860161122d565b611cfc81611257565b840191505092915050565b611d10816112a1565b82525050565b60006080820190508181036000830152611d308187611cce565b90508181036020830152611d448186611cce565b9050611d536040830185611d07565b8181036060830152611d658184611cce565b905095945050505050565b7f4365727469666963617465206e6f7420666f756e640000000000000000000000600082015250565b6000611da66015836118ee565b9150611db182611d70565b602082019050919050565b60006020820190508181036000830152611dd581611d99565b9050919050565b7f496e76616c696420616464726573730000000000000000000000000000000000600082015250565b6000611e12600f836118ee565b9150611e1d82611ddc565b602082019050919050565b60006020820190508181036000830152611e4181611e05565b905091905056fea2646970667358221220cad07e28b8a54774685c9a94fa4bef7a53f9e7845b3f886d3a13681ca0a7e03564736f6c63430008140033",
  "linkReferences": {},
  "deployedLinkReferences": {}
}